{
  "contractName": "Marketplace",
  "abi": [
    {
      "inputs": [],
      "stateMutability": "nonpayable",
      "type": "constructor"
    },
    {
      "anonymous": false,
      "inputs": [
        {
          "indexed": false,
          "internalType": "address",
          "name": "previousAdmin",
          "type": "address"
        },
        {
          "indexed": false,
          "internalType": "address",
          "name": "newAdmin",
          "type": "address"
        }
      ],
      "name": "AdminChanged",
      "type": "event"
    },
    {
      "anonymous": false,
      "inputs": [
        {
          "indexed": true,
          "internalType": "address",
          "name": "beacon",
          "type": "address"
        }
      ],
      "name": "BeaconUpgraded",
      "type": "event"
    },
    {
      "anonymous": false,
      "inputs": [
        {
          "indexed": false,
          "internalType": "uint8",
          "name": "version",
          "type": "uint8"
        }
      ],
      "name": "Initialized",
      "type": "event"
    },
    {
      "anonymous": false,
      "inputs": [
        {
          "indexed": true,
          "internalType": "address",
          "name": "buyer",
          "type": "address"
        },
        {
          "indexed": true,
          "internalType": "uint256",
          "name": "tokenId",
          "type": "uint256"
        },
        {
          "indexed": true,
          "internalType": "uint256",
          "name": "price",
          "type": "uint256"
        },
        {
          "indexed": false,
          "internalType": "uint256",
          "name": "amount",
          "type": "uint256"
        }
      ],
      "name": "ItemBought",
      "type": "event"
    },
    {
      "anonymous": false,
      "inputs": [
        {
          "indexed": true,
          "internalType": "address",
          "name": "caller",
          "type": "address"
        },
        {
          "indexed": true,
          "internalType": "uint256",
          "name": "tokenId",
          "type": "uint256"
        }
      ],
      "name": "ItemDelisted",
      "type": "event"
    },
    {
      "anonymous": false,
      "inputs": [
        {
          "indexed": true,
          "internalType": "address",
          "name": "seller",
          "type": "address"
        },
        {
          "indexed": true,
          "internalType": "uint256",
          "name": "tokenId",
          "type": "uint256"
        },
        {
          "indexed": true,
          "internalType": "uint256",
          "name": "price",
          "type": "uint256"
        },
        {
          "indexed": false,
          "internalType": "uint256",
          "name": "amount",
          "type": "uint256"
        }
      ],
      "name": "ItemListed",
      "type": "event"
    },
    {
      "anonymous": false,
      "inputs": [
        {
          "indexed": false,
          "internalType": "address",
          "name": "account",
          "type": "address"
        }
      ],
      "name": "Paused",
      "type": "event"
    },
    {
      "anonymous": false,
      "inputs": [
        {
          "indexed": true,
          "internalType": "bytes32",
          "name": "role",
          "type": "bytes32"
        },
        {
          "indexed": true,
          "internalType": "bytes32",
          "name": "previousAdminRole",
          "type": "bytes32"
        },
        {
          "indexed": true,
          "internalType": "bytes32",
          "name": "newAdminRole",
          "type": "bytes32"
        }
      ],
      "name": "RoleAdminChanged",
      "type": "event"
    },
    {
      "anonymous": false,
      "inputs": [
        {
          "indexed": true,
          "internalType": "bytes32",
          "name": "role",
          "type": "bytes32"
        },
        {
          "indexed": true,
          "internalType": "address",
          "name": "account",
          "type": "address"
        },
        {
          "indexed": true,
          "internalType": "address",
          "name": "sender",
          "type": "address"
        }
      ],
      "name": "RoleGranted",
      "type": "event"
    },
    {
      "anonymous": false,
      "inputs": [
        {
          "indexed": true,
          "internalType": "bytes32",
          "name": "role",
          "type": "bytes32"
        },
        {
          "indexed": true,
          "internalType": "address",
          "name": "account",
          "type": "address"
        },
        {
          "indexed": true,
          "internalType": "address",
          "name": "sender",
          "type": "address"
        }
      ],
      "name": "RoleRevoked",
      "type": "event"
    },
    {
      "anonymous": false,
      "inputs": [
        {
          "indexed": false,
          "internalType": "address",
          "name": "account",
          "type": "address"
        }
      ],
      "name": "Unpaused",
      "type": "event"
    },
    {
      "anonymous": false,
      "inputs": [
        {
          "indexed": true,
          "internalType": "address",
          "name": "implementation",
          "type": "address"
        }
      ],
      "name": "Upgraded",
      "type": "event"
    },
    {
      "inputs": [],
      "name": "DEFAULT_ADMIN_ROLE",
      "outputs": [
        {
          "internalType": "bytes32",
          "name": "",
          "type": "bytes32"
        }
      ],
      "stateMutability": "view",
      "type": "function"
    },
    {
      "inputs": [],
      "name": "MANAGER_ROLE",
      "outputs": [
        {
          "internalType": "bytes32",
          "name": "",
          "type": "bytes32"
        }
      ],
      "stateMutability": "view",
      "type": "function"
    },
    {
      "inputs": [],
      "name": "PAUSER_ROLE",
      "outputs": [
        {
          "internalType": "bytes32",
          "name": "",
          "type": "bytes32"
        }
      ],
      "stateMutability": "view",
      "type": "function"
    },
    {
      "inputs": [],
      "name": "UPGRADER_ROLE",
      "outputs": [
        {
          "internalType": "bytes32",
          "name": "",
          "type": "bytes32"
        }
      ],
      "stateMutability": "view",
      "type": "function"
    },
    {
      "inputs": [],
      "name": "_nftAddress",
      "outputs": [
        {
          "internalType": "address",
          "name": "",
          "type": "address"
        }
      ],
      "stateMutability": "view",
      "type": "function"
    },
    {
      "inputs": [
        {
          "internalType": "bytes32",
          "name": "role",
          "type": "bytes32"
        }
      ],
      "name": "getRoleAdmin",
      "outputs": [
        {
          "internalType": "bytes32",
          "name": "",
          "type": "bytes32"
        }
      ],
      "stateMutability": "view",
      "type": "function"
    },
    {
      "inputs": [
        {
          "internalType": "bytes32",
          "name": "role",
          "type": "bytes32"
        },
        {
          "internalType": "address",
          "name": "account",
          "type": "address"
        }
      ],
      "name": "grantRole",
      "outputs": [],
      "stateMutability": "nonpayable",
      "type": "function"
    },
    {
      "inputs": [
        {
          "internalType": "bytes32",
          "name": "role",
          "type": "bytes32"
        },
        {
          "internalType": "address",
          "name": "account",
          "type": "address"
        }
      ],
      "name": "hasRole",
      "outputs": [
        {
          "internalType": "bool",
          "name": "",
          "type": "bool"
        }
      ],
      "stateMutability": "view",
      "type": "function"
    },
    {
      "inputs": [],
      "name": "listingFee",
      "outputs": [
        {
          "internalType": "uint256",
          "name": "",
          "type": "uint256"
        }
      ],
      "stateMutability": "view",
      "type": "function"
    },
    {
      "inputs": [
        {
          "internalType": "address",
          "name": "",
          "type": "address"
        },
        {
          "internalType": "address",
          "name": "",
          "type": "address"
        },
        {
          "internalType": "uint256[]",
          "name": "",
          "type": "uint256[]"
        },
        {
          "internalType": "uint256[]",
          "name": "",
          "type": "uint256[]"
        },
        {
          "internalType": "bytes",
          "name": "",
          "type": "bytes"
        }
      ],
      "name": "onERC1155BatchReceived",
      "outputs": [
        {
          "internalType": "bytes4",
          "name": "",
          "type": "bytes4"
        }
      ],
      "stateMutability": "nonpayable",
      "type": "function"
    },
    {
      "inputs": [
        {
          "internalType": "address",
          "name": "",
          "type": "address"
        },
        {
          "internalType": "address",
          "name": "",
          "type": "address"
        },
        {
          "internalType": "uint256",
          "name": "",
          "type": "uint256"
        },
        {
          "internalType": "uint256",
          "name": "",
          "type": "uint256"
        },
        {
          "internalType": "bytes",
          "name": "",
          "type": "bytes"
        }
      ],
      "name": "onERC1155Received",
      "outputs": [
        {
          "internalType": "bytes4",
          "name": "",
          "type": "bytes4"
        }
      ],
      "stateMutability": "nonpayable",
      "type": "function"
    },
    {
      "inputs": [],
      "name": "paused",
      "outputs": [
        {
          "internalType": "bool",
          "name": "",
          "type": "bool"
        }
      ],
      "stateMutability": "view",
      "type": "function"
    },
    {
      "inputs": [],
      "name": "proxiableUUID",
      "outputs": [
        {
          "internalType": "bytes32",
          "name": "",
          "type": "bytes32"
        }
      ],
      "stateMutability": "view",
      "type": "function"
    },
    {
      "inputs": [
        {
          "internalType": "bytes32",
          "name": "role",
          "type": "bytes32"
        },
        {
          "internalType": "address",
          "name": "account",
          "type": "address"
        }
      ],
      "name": "renounceRole",
      "outputs": [],
      "stateMutability": "nonpayable",
      "type": "function"
    },
    {
      "inputs": [
        {
          "internalType": "bytes32",
          "name": "role",
          "type": "bytes32"
        },
        {
          "internalType": "address",
          "name": "account",
          "type": "address"
        }
      ],
      "name": "revokeRole",
      "outputs": [],
      "stateMutability": "nonpayable",
      "type": "function"
    },
    {
      "inputs": [
        {
          "internalType": "address",
          "name": "newImplementation",
          "type": "address"
        }
      ],
      "name": "upgradeTo",
      "outputs": [],
      "stateMutability": "nonpayable",
      "type": "function"
    },
    {
      "inputs": [
        {
          "internalType": "address",
          "name": "newImplementation",
          "type": "address"
        },
        {
          "internalType": "bytes",
          "name": "data",
          "type": "bytes"
        }
      ],
      "name": "upgradeToAndCall",
      "outputs": [],
      "stateMutability": "payable",
      "type": "function"
    },
    {
      "inputs": [
        {
          "internalType": "address",
          "name": "nftAddress",
          "type": "address"
        }
      ],
      "name": "initialize",
      "outputs": [],
      "stateMutability": "nonpayable",
      "type": "function"
    },
    {
      "inputs": [
        {
          "internalType": "uint256",
          "name": "tokenId",
          "type": "uint256"
        },
        {
          "internalType": "uint256",
          "name": "amount",
          "type": "uint256"
        },
        {
          "internalType": "uint256",
          "name": "price",
          "type": "uint256"
        }
      ],
      "name": "updateListing",
      "outputs": [],
      "stateMutability": "nonpayable",
      "type": "function"
    },
    {
      "inputs": [
        {
          "internalType": "uint256",
          "name": "tokenId",
          "type": "uint256"
        }
      ],
      "name": "cancelListing",
      "outputs": [],
      "stateMutability": "nonpayable",
      "type": "function"
    },
    {
      "inputs": [
        {
          "internalType": "uint256",
          "name": "tokenId",
          "type": "uint256"
        },
        {
          "internalType": "address",
          "name": "seller",
          "type": "address"
        },
        {
          "internalType": "uint256",
          "name": "amount",
          "type": "uint256"
        }
      ],
      "name": "buyFromListing",
      "outputs": [],
      "stateMutability": "nonpayable",
      "type": "function"
    },
    {
      "inputs": [],
      "name": "withdrawProceeds",
      "outputs": [],
      "stateMutability": "nonpayable",
      "type": "function"
    },
    {
      "inputs": [],
      "name": "adminWithdrawal",
      "outputs": [],
      "stateMutability": "nonpayable",
      "type": "function"
    },
    {
      "inputs": [
        {
          "internalType": "address",
          "name": "account",
          "type": "address"
        }
      ],
      "name": "getProceeds",
      "outputs": [
        {
          "internalType": "uint256",
          "name": "",
          "type": "uint256"
        }
      ],
      "stateMutability": "view",
      "type": "function"
    },
    {
      "inputs": [
        {
          "internalType": "uint256",
          "name": "tokenId",
          "type": "uint256"
        },
        {
          "internalType": "address",
          "name": "seller",
          "type": "address"
        }
      ],
      "name": "getListing",
      "outputs": [
        {
          "components": [
            {
              "internalType": "uint256",
              "name": "amount",
              "type": "uint256"
            },
            {
              "internalType": "uint256",
              "name": "price",
              "type": "uint256"
            }
          ],
          "internalType": "struct iMarketplace.MarketOrder",
          "name": "",
          "type": "tuple"
        }
      ],
      "stateMutability": "view",
      "type": "function"
    },
    {
      "inputs": [
        {
          "internalType": "uint256",
          "name": "fee",
          "type": "uint256"
        }
      ],
      "name": "setListingFee",
      "outputs": [],
      "stateMutability": "nonpayable",
      "type": "function"
    },
    {
      "inputs": [
        {
          "internalType": "address",
          "name": "nftAddress",
          "type": "address"
        }
      ],
      "name": "setNftContract",
      "outputs": [],
      "stateMutability": "nonpayable",
      "type": "function"
    },
    {
      "inputs": [],
      "name": "pause",
      "outputs": [],
      "stateMutability": "nonpayable",
      "type": "function"
    },
    {
      "inputs": [],
      "name": "unpause",
      "outputs": [],
      "stateMutability": "nonpayable",
      "type": "function"
    },
    {
      "inputs": [
        {
          "internalType": "bytes4",
          "name": "interfaceId",
          "type": "bytes4"
        }
      ],
      "name": "supportsInterface",
      "outputs": [
        {
          "internalType": "bool",
          "name": "",
          "type": "bool"
        }
      ],
      "stateMutability": "view",
      "type": "function"
    }
  ],
  "bytecode": "0x60a06040523073ffffffffffffffffffffffffffffffffffffffff1660809073ffffffffffffffffffffffffffffffffffffffff168152503480156200004457600080fd5b50620000556200005b60201b60201c565b62000206565b600060019054906101000a900460ff1615620000ae576040517f08c379a0000000000000000000000000000000000000000000000000000000008152600401620000a590620001a9565b60405180910390fd5b60ff801660008054906101000a900460ff1660ff161015620001205760ff6000806101000a81548160ff021916908360ff1602179055507f7f26b83ff96e1f2b6a682f133852f6798a09c465da95921460cefb384740249860ff604051620001179190620001e9565b60405180910390a15b565b600082825260208201905092915050565b7f496e697469616c697a61626c653a20636f6e747261637420697320696e69746960008201527f616c697a696e6700000000000000000000000000000000000000000000000000602082015250565b60006200019160278362000122565b91506200019e8262000133565b604082019050919050565b60006020820190508181036000830152620001c48162000182565b9050919050565b600060ff82169050919050565b620001e381620001cb565b82525050565b6000602082019050620002006000830184620001d8565b92915050565b6080516146f66200023e600039600081816108ea0152818161097801528181610aa701528181610b350152610be501526146f66000f3fe6080604052600436106101cd5760003560e01c80638456cb59116100f7578063c4d66de811610095578063f23a6e6111610064578063f23a6e611461062d578063f6cf2a161461066a578063f72c0d8b14610693578063f95de54f146106be576101cd565b8063c4d66de814610585578063d547741f146105ae578063e63ab1e9146105d7578063ec87621c14610602576101cd565b8063935b74c8116100d1578063935b74c8146104b5578063a217fddf146104f2578063a65d61551461051d578063bc197c8114610548576101cd565b80638456cb591461044a5780639038e6931461046157806391d1485414610478576101cd565b80633659cfe61161016f57806352f5ad771161013e57806352f5ad77146103b45780635c975abb146103dd57806363ffe7e3146104085780636a1b7ecc1461041f576101cd565b80633659cfe61461032d5780633f4ba83a146103565780634f1ef2861461036d57806352d1902d14610389576101cd565b80632f2ff15d116101ab5780632f2ff15d14610275578063305a67a81461029e57806330cfeda9146102c757806336568abe14610304576101cd565b806301ffc9a7146101d2578063131dbd091461020f578063248a9ca314610238575b600080fd5b3480156101de57600080fd5b506101f960048036038101906101f49190612c83565b6106e7565b6040516102069190612ccb565b60405180910390f35b34801561021b57600080fd5b5061023660048036038101906102319190612d1c565b6106f9565b005b34801561024457600080fd5b5061025f600480360381019061025a9190612d7f565b61072f565b60405161026c9190612dbb565b60405180910390f35b34801561028157600080fd5b5061029c60048036038101906102979190612e34565b61074f565b005b3480156102aa57600080fd5b506102c560048036038101906102c09190612d1c565b610770565b005b3480156102d357600080fd5b506102ee60048036038101906102e99190612e74565b61081b565b6040516102fb9190612eb0565b60405180910390f35b34801561031057600080fd5b5061032b60048036038101906103269190612e34565b610865565b005b34801561033957600080fd5b50610354600480360381019061034f9190612e74565b6108e8565b005b34801561036257600080fd5b5061036b610a70565b005b61038760048036038101906103829190613011565b610aa5565b005b34801561039557600080fd5b5061039e610be1565b6040516103ab9190612dbb565b60405180910390f35b3480156103c057600080fd5b506103db60048036038101906103d69190612e74565b610c9a565b005b3480156103e957600080fd5b506103f2610dde565b6040516103ff9190612ccb565b60405180910390f35b34801561041457600080fd5b5061041d610df5565b005b34801561042b57600080fd5b50610434610e0e565b6040516104419190612eb0565b60405180910390f35b34801561045657600080fd5b5061045f610e15565b005b34801561046d57600080fd5b50610476610e4a565b005b34801561048457600080fd5b5061049f600480360381019061049a9190612e34565b610e55565b6040516104ac9190612ccb565b60405180910390f35b3480156104c157600080fd5b506104dc60048036038101906104d7919061306d565b610ec0565b6040516104e991906130eb565b60405180910390f35b3480156104fe57600080fd5b50610507610fd4565b6040516105149190612dbb565b60405180910390f35b34801561052957600080fd5b50610532610fdb565b60405161053f9190613115565b60405180910390f35b34801561055457600080fd5b5061056f600480360381019061056a91906131f8565b611002565b60405161057c91906132d6565b60405180910390f35b34801561059157600080fd5b506105ac60048036038101906105a79190612e74565b611017565b005b3480156105ba57600080fd5b506105d560048036038101906105d09190612e34565b611213565b005b3480156105e357600080fd5b506105ec611234565b6040516105f99190612dbb565b60405180910390f35b34801561060e57600080fd5b50610617611258565b6040516106249190612dbb565b60405180910390f35b34801561063957600080fd5b50610654600480360381019061064f91906132f1565b61127c565b60405161066191906132d6565b60405180910390f35b34801561067657600080fd5b50610691600480360381019061068c9190613388565b611291565b005b34801561069f57600080fd5b506106a8611613565b6040516106b59190612dbb565b60405180910390f35b3480156106ca57600080fd5b506106e560048036038101906106e091906133db565b611637565b005b60006106f282611b97565b9050919050565b7f241ecf16d79d0f8dbfb92cbc07fe17840425976cf0667f022fe9877caa831b0861072381611c11565b816101c5819055505050565b600060976000838152602001908152602001600020600101549050919050565b6107588261072f565b61076181611c11565b61076b8383611c25565b505050565b803373ffffffffffffffffffffffffffffffffffffffff167faca2f4260fb2b4e6aa5f68a07c66e0a461f508267354a97bbefb46e09c9b875d60405160405180910390a36101c4600082815260200190815260200160002060003373ffffffffffffffffffffffffffffffffffffffff1673ffffffffffffffffffffffffffffffffffffffff1681526020019081526020016000206000808201600090556001820160009055505050565b60006101c360008373ffffffffffffffffffffffffffffffffffffffff1673ffffffffffffffffffffffffffffffffffffffff168152602001908152602001600020549050919050565b61086d611d06565b73ffffffffffffffffffffffffffffffffffffffff168173ffffffffffffffffffffffffffffffffffffffff16146108da576040517f08c379a00000000000000000000000000000000000000000000000000000000081526004016108d1906134b1565b60405180910390fd5b6108e48282611d0e565b5050565b7f000000000000000000000000000000000000000000000000000000000000000073ffffffffffffffffffffffffffffffffffffffff163073ffffffffffffffffffffffffffffffffffffffff1603610976576040517f08c379a000000000000000000000000000000000000000000000000000000000815260040161096d90613543565b60405180910390fd5b7f000000000000000000000000000000000000000000000000000000000000000073ffffffffffffffffffffffffffffffffffffffff166109b5611df0565b73ffffffffffffffffffffffffffffffffffffffff1614610a0b576040517f08c379a0000000000000000000000000000000000000000000000000000000008152600401610a02906135d5565b60405180910390fd5b610a1481611e47565b610a6d81600067ffffffffffffffff811115610a3357610a32612ee6565b5b6040519080825280601f01601f191660200182016040528015610a655781602001600182028036833780820191505090505b506000611e75565b50565b7f65d7a28e3265b37a6474929f336521b332c1681b933f6cb9f3376673440d862a610a9a81611c11565b610aa2611fe3565b50565b7f000000000000000000000000000000000000000000000000000000000000000073ffffffffffffffffffffffffffffffffffffffff163073ffffffffffffffffffffffffffffffffffffffff1603610b33576040517f08c379a0000000000000000000000000000000000000000000000000000000008152600401610b2a90613543565b60405180910390fd5b7f000000000000000000000000000000000000000000000000000000000000000073ffffffffffffffffffffffffffffffffffffffff16610b72611df0565b73ffffffffffffffffffffffffffffffffffffffff1614610bc8576040517f08c379a0000000000000000000000000000000000000000000000000000000008152600401610bbf906135d5565b60405180910390fd5b610bd182611e47565b610bdd82826001611e75565b5050565b60007f000000000000000000000000000000000000000000000000000000000000000073ffffffffffffffffffffffffffffffffffffffff163073ffffffffffffffffffffffffffffffffffffffff1614610c71576040517f08c379a0000000000000000000000000000000000000000000000000000000008152600401610c6890613667565b60405180910390fd5b7f360894a13ba1a3210667c828492db98dca3e2076cc3735a920a3ca505d382bbc60001b905090565b7f241ecf16d79d0f8dbfb92cbc07fe17840425976cf0667f022fe9877caa831b08610cc481611c11565b600073ffffffffffffffffffffffffffffffffffffffff168273ffffffffffffffffffffffffffffffffffffffff1603610d33576040517f08c379a0000000000000000000000000000000000000000000000000000000008152600401610d2a906136d3565b60405180910390fd5b816101c660006101000a81548173ffffffffffffffffffffffffffffffffffffffff021916908373ffffffffffffffffffffffffffffffffffffffff1602179055506101c660009054906101000a900473ffffffffffffffffffffffffffffffffffffffff166101c760006101000a81548173ffffffffffffffffffffffffffffffffffffffff021916908373ffffffffffffffffffffffffffffffffffffffff1602179055505050565b6000603360009054906101000a900460ff16905090565b6000801b610e0281611c11565b610e0b30612046565b50565b6101c55481565b7f65d7a28e3265b37a6474929f336521b332c1681b933f6cb9f3376673440d862a610e3f81611c11565b610e476121ad565b50565b610e5333612046565b565b60006097600084815260200190815260200160002060000160008373ffffffffffffffffffffffffffffffffffffffff1673ffffffffffffffffffffffffffffffffffffffff16815260200190815260200160002060009054906101000a900460ff16905092915050565b610ec8612bfd565b60006101c4600085815260200190815260200160002060008473ffffffffffffffffffffffffffffffffffffffff1673ffffffffffffffffffffffffffffffffffffffff1681526020019081526020016000206040518060400160405290816000820154815260200160018201548152505090506000816020015111610f83576040517f08c379a0000000000000000000000000000000000000000000000000000000008152600401610f7a9061373f565b60405180910390fd5b6000816000015111610fca576040517f08c379a0000000000000000000000000000000000000000000000000000000008152600401610fc19061373f565b60405180910390fd5b8091505092915050565b6000801b81565b6101c660009054906101000a900473ffffffffffffffffffffffffffffffffffffffff1681565b600063bc197c8160e01b905095945050505050565b60008060019054906101000a900460ff161590508080156110485750600160008054906101000a900460ff1660ff16105b80611075575061105730612210565b1580156110745750600160008054906101000a900460ff1660ff16145b5b6110b4576040517f08c379a00000000000000000000000000000000000000000000000000000000081526004016110ab906137d1565b60405180910390fd5b60016000806101000a81548160ff021916908360ff16021790555080156110f1576001600060016101000a81548160ff0219169083151502179055505b6110f9612233565b61110161228c565b6111096122dd565b61111161232e565b61111961237f565b6111266000801b33611c25565b6111507f65d7a28e3265b37a6474929f336521b332c1681b933f6cb9f3376673440d862a33611c25565b61117a7f241ecf16d79d0f8dbfb92cbc07fe17840425976cf0667f022fe9877caa831b0833611c25565b6111a47f189ab7a9244df0848122154315af71fe140f3db0fe014031783b0946b8c9d2e333611c25565b6111ad82610c9a565b60016101c581905550801561120f5760008060016101000a81548160ff0219169083151502179055507f7f26b83ff96e1f2b6a682f133852f6798a09c465da95921460cefb384740249860016040516112069190613843565b60405180910390a15b5050565b61121c8261072f565b61122581611c11565b61122f8383611d0e565b505050565b7f65d7a28e3265b37a6474929f336521b332c1681b933f6cb9f3376673440d862a81565b7f241ecf16d79d0f8dbfb92cbc07fe17840425976cf0667f022fe9877caa831b0881565b600063f23a6e6160e01b905095945050505050565b828282600083116112d7576040517f08c379a00000000000000000000000000000000000000000000000000000000081526004016112ce906138aa565b60405180910390fd5b6000821161131a576040517f08c379a000000000000000000000000000000000000000000000000000000000815260040161131190613916565b60405180910390fd5b6000811161135d576040517f08c379a000000000000000000000000000000000000000000000000000000000815260040161135490613982565b60405180910390fd5b60006101c760009054906101000a900473ffffffffffffffffffffffffffffffffffffffff1673ffffffffffffffffffffffffffffffffffffffff1663e985e9c533306040518363ffffffff1660e01b81526004016113bd9291906139a2565b602060405180830381865afa1580156113da573d6000803e3d6000fd5b505050506040513d601f19601f820116820180604052508101906113fe91906139f7565b905060006101c760009054906101000a900473ffffffffffffffffffffffffffffffffffffffff1673ffffffffffffffffffffffffffffffffffffffff1662fdd58e33876040518363ffffffff1660e01b815260040161145f929190613a24565b602060405180830381865afa15801561147c573d6000803e3d6000fd5b505050506040513d601f19601f820116820180604052508101906114a09190613a62565b905060011515821515146114e9576040517f08c379a00000000000000000000000000000000000000000000000000000000081526004016114e090613adb565b60405180910390fd5b8084111561152c576040517f08c379a000000000000000000000000000000000000000000000000000000000815260040161152390613b47565b60405180910390fd5b6115346123d8565b6040518060400160405280888152602001878152506101c460008a815260200190815260200160002060003373ffffffffffffffffffffffffffffffffffffffff1673ffffffffffffffffffffffffffffffffffffffff168152602001908152602001600020600082015181600001556020820151816001015590505085883373ffffffffffffffffffffffffffffffffffffffff167f58daee15640543ce9c441aaf5417a2860fd1fd6b7e8a9648d1bb4d2b0c17b62a8a6040516115f99190612eb0565b60405180910390a4611609612429565b5050505050505050565b7f189ab7a9244df0848122154315af71fe140f3db0fe014031783b0946b8c9d2e381565b60006101c4600085815260200190815260200160002060008473ffffffffffffffffffffffffffffffffffffffff1673ffffffffffffffffffffffffffffffffffffffff16815260200190815260200160002060405180604001604052908160008201548152602001600182015481525050905060008160200151116116f2576040517f08c379a00000000000000000000000000000000000000000000000000000000081526004016116e99061373f565b60405180910390fd5b6000816000015111611739576040517f08c379a00000000000000000000000000000000000000000000000000000000081526004016117309061373f565b60405180910390fd5b6000821161177c576040517f08c379a000000000000000000000000000000000000000000000000000000000815260040161177390613bb3565b60405180910390fd5b80600001518211156117c3576040517f08c379a00000000000000000000000000000000000000000000000000000000081526004016117ba90613c45565b60405180910390fd5b60008282602001516117d59190613c94565b90506000836101c5546117e89190613c94565b905060006101c760009054906101000a900473ffffffffffffffffffffffffffffffffffffffff1673ffffffffffffffffffffffffffffffffffffffff1662fdd58e3360006040518363ffffffff1660e01b815260040161184a929190613d29565b602060405180830381865afa158015611867573d6000803e3d6000fd5b505050506040513d601f19601f8201168201806040525081019061188b9190613a62565b9050828110156118d0576040517f08c379a00000000000000000000000000000000000000000000000000000000081526004016118c790613d9e565b60405180910390fd5b846101c4600089815260200190815260200160002060008873ffffffffffffffffffffffffffffffffffffffff1673ffffffffffffffffffffffffffffffffffffffff16815260200190815260200160002060000160008282546119349190613dbe565b9250508190555081836119479190613dbe565b6101c360008873ffffffffffffffffffffffffffffffffffffffff1673ffffffffffffffffffffffffffffffffffffffff16815260200190815260200160002060008282546119969190613df2565b92505081905550816101c360003073ffffffffffffffffffffffffffffffffffffffff1673ffffffffffffffffffffffffffffffffffffffff16815260200190815260200160002060008282546119ed9190613df2565b925050819055506101c760009054906101000a900473ffffffffffffffffffffffffffffffffffffffff1673ffffffffffffffffffffffffffffffffffffffff1663f242432a33306000866040518563ffffffff1660e01b8152600401611a579493929190613e5d565b600060405180830381600087803b158015611a7157600080fd5b505af1158015611a85573d6000803e3d6000fd5b50505050611aa5303389886040518060200160405280600081525061127c565b506101c760009054906101000a900473ffffffffffffffffffffffffffffffffffffffff1673ffffffffffffffffffffffffffffffffffffffff1663f242432a87338a896040518563ffffffff1660e01b8152600401611b089493929190613eb5565b600060405180830381600087803b158015611b2257600080fd5b505af1158015611b36573d6000803e3d6000fd5b505050508360200151873373ffffffffffffffffffffffffffffffffffffffff167fe75ef3a0d768e0e8037e4b80e42d2f8a3c797998ec29cacf84fa87766ff8de5e88604051611b869190612eb0565b60405180910390a450505050505050565b60007f4e2312e0000000000000000000000000000000000000000000000000000000007bffffffffffffffffffffffffffffffffffffffffffffffffffffffff1916827bffffffffffffffffffffffffffffffffffffffffffffffffffffffff19161480611c0a5750611c0982612434565b5b9050919050565b611c2281611c1d611d06565b6124ae565b50565b611c2f8282610e55565b611d025760016097600084815260200190815260200160002060000160008373ffffffffffffffffffffffffffffffffffffffff1673ffffffffffffffffffffffffffffffffffffffff16815260200190815260200160002060006101000a81548160ff021916908315150217905550611ca7611d06565b73ffffffffffffffffffffffffffffffffffffffff168173ffffffffffffffffffffffffffffffffffffffff16837f2f8788117e7eff1d82e926ec794901d17c78024a50270940304540a733656f0d60405160405180910390a45b5050565b600033905090565b611d188282610e55565b15611dec5760006097600084815260200190815260200160002060000160008373ffffffffffffffffffffffffffffffffffffffff1673ffffffffffffffffffffffffffffffffffffffff16815260200190815260200160002060006101000a81548160ff021916908315150217905550611d91611d06565b73ffffffffffffffffffffffffffffffffffffffff168173ffffffffffffffffffffffffffffffffffffffff16837ff6391f5c32d9c69d2a47ea670b442974b53935d1edc7fd64eb21e047a839171b60405160405180910390a45b5050565b6000611e1e7f360894a13ba1a3210667c828492db98dca3e2076cc3735a920a3ca505d382bbc60001b612533565b60000160009054906101000a900473ffffffffffffffffffffffffffffffffffffffff16905090565b7f189ab7a9244df0848122154315af71fe140f3db0fe014031783b0946b8c9d2e3611e7181611c11565b5050565b611ea17f4910fdfa16fed3260ed0e7147f7cc6da11a60208b5b9406d12a635614ffd914360001b61253d565b60000160009054906101000a900460ff1615611ec557611ec083612547565b611fde565b8273ffffffffffffffffffffffffffffffffffffffff166352d1902d6040518163ffffffff1660e01b8152600401602060405180830381865afa925050508015611f2d57506040513d601f19601f82011682018060405250810190611f2a9190613f22565b60015b611f6c576040517f08c379a0000000000000000000000000000000000000000000000000000000008152600401611f6390613fc1565b60405180910390fd5b7f360894a13ba1a3210667c828492db98dca3e2076cc3735a920a3ca505d382bbc60001b8114611fd1576040517f08c379a0000000000000000000000000000000000000000000000000000000008152600401611fc890614053565b60405180910390fd5b50611fdd838383612600565b5b505050565b611feb61262c565b6000603360006101000a81548160ff0219169083151502179055507f5db9ee0a495bf2e6ff9c91a7834c1ba4fdd244a5e8aa4e537bd38aeae4b073aa61202f611d06565b60405161203c9190613115565b60405180910390a1565b60006101c360008373ffffffffffffffffffffffffffffffffffffffff1673ffffffffffffffffffffffffffffffffffffffff168152602001908152602001600020549050600081116120ce576040517f08c379a00000000000000000000000000000000000000000000000000000000081526004016120c5906140bf565b60405180910390fd5b60006101c360008473ffffffffffffffffffffffffffffffffffffffff1673ffffffffffffffffffffffffffffffffffffffff168152602001908152602001600020819055506101c760009054906101000a900473ffffffffffffffffffffffffffffffffffffffff1673ffffffffffffffffffffffffffffffffffffffff1663f242432a30336000856040518563ffffffff1660e01b81526004016121779493929190613e5d565b600060405180830381600087803b15801561219157600080fd5b505af11580156121a5573d6000803e3d6000fd5b505050505050565b6121b5612675565b6001603360006101000a81548160ff0219169083151502179055507f62e78cea01bee320cd4e420270b5ea74000d11b0c9f74754ebdbfc544b05a2586121f9611d06565b6040516122069190613115565b60405180910390a1565b6000808273ffffffffffffffffffffffffffffffffffffffff163b119050919050565b600060019054906101000a900460ff16612282576040517f08c379a000000000000000000000000000000000000000000000000000000000815260040161227990614151565b60405180910390fd5b61228a6126bf565b565b600060019054906101000a900460ff166122db576040517f08c379a00000000000000000000000000000000000000000000000000000000081526004016122d290614151565b60405180910390fd5b565b600060019054906101000a900460ff1661232c576040517f08c379a000000000000000000000000000000000000000000000000000000000815260040161232390614151565b60405180910390fd5b565b600060019054906101000a900460ff1661237d576040517f08c379a000000000000000000000000000000000000000000000000000000000815260040161237490614151565b60405180910390fd5b565b600060019054906101000a900460ff166123ce576040517f08c379a00000000000000000000000000000000000000000000000000000000081526004016123c590614151565b60405180910390fd5b6123d661272b565b565b6002610191540361241e576040517f08c379a0000000000000000000000000000000000000000000000000000000008152600401612415906141bd565b60405180910390fd5b600261019181905550565b600161019181905550565b60007f7965db0b000000000000000000000000000000000000000000000000000000007bffffffffffffffffffffffffffffffffffffffffffffffffffffffff1916827bffffffffffffffffffffffffffffffffffffffffffffffffffffffff191614806124a757506124a682612785565b5b9050919050565b6124b88282610e55565b61252f576124c5816127ef565b6124d38360001c602061281c565b6040516020016124e49291906142e6565b6040516020818303038152906040526040517f08c379a00000000000000000000000000000000000000000000000000000000081526004016125269190614359565b60405180910390fd5b5050565b6000819050919050565b6000819050919050565b61255081612210565b61258f576040517f08c379a0000000000000000000000000000000000000000000000000000000008152600401612586906143ed565b60405180910390fd5b806125bc7f360894a13ba1a3210667c828492db98dca3e2076cc3735a920a3ca505d382bbc60001b612533565b60000160006101000a81548173ffffffffffffffffffffffffffffffffffffffff021916908373ffffffffffffffffffffffffffffffffffffffff16021790555050565b61260983612a58565b6000825111806126165750805b15612627576126258383612aa7565b505b505050565b612634610dde565b612673576040517f08c379a000000000000000000000000000000000000000000000000000000000815260040161266a90614459565b60405180910390fd5b565b61267d610dde565b156126bd576040517f08c379a00000000000000000000000000000000000000000000000000000000081526004016126b4906144c5565b60405180910390fd5b565b600060019054906101000a900460ff1661270e576040517f08c379a000000000000000000000000000000000000000000000000000000000815260040161270590614151565b60405180910390fd5b6000603360006101000a81548160ff021916908315150217905550565b600060019054906101000a900460ff1661277a576040517f08c379a000000000000000000000000000000000000000000000000000000000815260040161277190614151565b60405180910390fd5b600161019181905550565b60007f01ffc9a7000000000000000000000000000000000000000000000000000000007bffffffffffffffffffffffffffffffffffffffffffffffffffffffff1916827bffffffffffffffffffffffffffffffffffffffffffffffffffffffff1916149050919050565b60606128158273ffffffffffffffffffffffffffffffffffffffff16601460ff1661281c565b9050919050565b60606000600283600261282f9190613c94565b6128399190613df2565b67ffffffffffffffff81111561285257612851612ee6565b5b6040519080825280601f01601f1916602001820160405280156128845781602001600182028036833780820191505090505b5090507f3000000000000000000000000000000000000000000000000000000000000000816000815181106128bc576128bb6144e5565b5b60200101907effffffffffffffffffffffffffffffffffffffffffffffffffffffffffffff1916908160001a9053507f7800000000000000000000000000000000000000000000000000000000000000816001815181106129205761291f6144e5565b5b60200101907effffffffffffffffffffffffffffffffffffffffffffffffffffffffffffff1916908160001a905350600060018460026129609190613c94565b61296a9190613df2565b90505b6001811115612a0a577f3031323334353637383961626364656600000000000000000000000000000000600f8616601081106129ac576129ab6144e5565b5b1a60f81b8282815181106129c3576129c26144e5565b5b60200101907effffffffffffffffffffffffffffffffffffffffffffffffffffffffffffff1916908160001a905350600485901c945080612a0390614514565b905061296d565b5060008414612a4e576040517f08c379a0000000000000000000000000000000000000000000000000000000008152600401612a4590614589565b60405180910390fd5b8091505092915050565b612a6181612547565b8073ffffffffffffffffffffffffffffffffffffffff167fbc7cd75a20ee27fd9adebab32041f755214dbc6bffa90cc0225b39da2e5c2d3b60405160405180910390a250565b6060612ab283612210565b612af1576040517f08c379a0000000000000000000000000000000000000000000000000000000008152600401612ae89061461b565b60405180910390fd5b6000808473ffffffffffffffffffffffffffffffffffffffff1684604051612b199190614682565b600060405180830381855af49150503d8060008114612b54576040519150601f19603f3d011682016040523d82523d6000602084013e612b59565b606091505b5091509150612b81828260405180606001604052806027815260200161469a60279139612b8b565b9250505092915050565b60608315612b9b57829050612ba6565b612ba58383612bad565b5b9392505050565b600082511115612bc05781518083602001fd5b806040517f08c379a0000000000000000000000000000000000000000000000000000000008152600401612bf49190614359565b60405180910390fd5b604051806040016040528060008152602001600081525090565b6000604051905090565b600080fd5b600080fd5b60007fffffffff0000000000000000000000000000000000000000000000000000000082169050919050565b612c6081612c2b565b8114612c6b57600080fd5b50565b600081359050612c7d81612c57565b92915050565b600060208284031215612c9957612c98612c21565b5b6000612ca784828501612c6e565b91505092915050565b60008115159050919050565b612cc581612cb0565b82525050565b6000602082019050612ce06000830184612cbc565b92915050565b6000819050919050565b612cf981612ce6565b8114612d0457600080fd5b50565b600081359050612d1681612cf0565b92915050565b600060208284031215612d3257612d31612c21565b5b6000612d4084828501612d07565b91505092915050565b6000819050919050565b612d5c81612d49565b8114612d6757600080fd5b50565b600081359050612d7981612d53565b92915050565b600060208284031215612d9557612d94612c21565b5b6000612da384828501612d6a565b91505092915050565b612db581612d49565b82525050565b6000602082019050612dd06000830184612dac565b92915050565b600073ffffffffffffffffffffffffffffffffffffffff82169050919050565b6000612e0182612dd6565b9050919050565b612e1181612df6565b8114612e1c57600080fd5b50565b600081359050612e2e81612e08565b92915050565b60008060408385031215612e4b57612e4a612c21565b5b6000612e5985828601612d6a565b9250506020612e6a85828601612e1f565b9150509250929050565b600060208284031215612e8a57612e89612c21565b5b6000612e9884828501612e1f565b91505092915050565b612eaa81612ce6565b82525050565b6000602082019050612ec56000830184612ea1565b92915050565b600080fd5b600080fd5b6000601f19601f8301169050919050565b7f4e487b7100000000000000000000000000000000000000000000000000000000600052604160045260246000fd5b612f1e82612ed5565b810181811067ffffffffffffffff82111715612f3d57612f3c612ee6565b5b80604052505050565b6000612f50612c17565b9050612f5c8282612f15565b919050565b600067ffffffffffffffff821115612f7c57612f7b612ee6565b5b612f8582612ed5565b9050602081019050919050565b82818337600083830152505050565b6000612fb4612faf84612f61565b612f46565b905082815260208101848484011115612fd057612fcf612ed0565b5b612fdb848285612f92565b509392505050565b600082601f830112612ff857612ff7612ecb565b5b8135613008848260208601612fa1565b91505092915050565b6000806040838503121561302857613027612c21565b5b600061303685828601612e1f565b925050602083013567ffffffffffffffff81111561305757613056612c26565b5b61306385828601612fe3565b9150509250929050565b6000806040838503121561308457613083612c21565b5b600061309285828601612d07565b92505060206130a385828601612e1f565b9150509250929050565b6130b681612ce6565b82525050565b6040820160008201516130d260008501826130ad565b5060208201516130e560208501826130ad565b50505050565b600060408201905061310060008301846130bc565b92915050565b61310f81612df6565b82525050565b600060208201905061312a6000830184613106565b92915050565b600067ffffffffffffffff82111561314b5761314a612ee6565b5b602082029050602081019050919050565b600080fd5b600061317461316f84613130565b612f46565b905080838252602082019050602084028301858111156131975761319661315c565b5b835b818110156131c057806131ac8882612d07565b845260208401935050602081019050613199565b5050509392505050565b600082601f8301126131df576131de612ecb565b5b81356131ef848260208601613161565b91505092915050565b600080600080600060a0868803121561321457613213612c21565b5b600061322288828901612e1f565b955050602061323388828901612e1f565b945050604086013567ffffffffffffffff81111561325457613253612c26565b5b613260888289016131ca565b935050606086013567ffffffffffffffff81111561328157613280612c26565b5b61328d888289016131ca565b925050608086013567ffffffffffffffff8111156132ae576132ad612c26565b5b6132ba88828901612fe3565b9150509295509295909350565b6132d081612c2b565b82525050565b60006020820190506132eb60008301846132c7565b92915050565b600080600080600060a0868803121561330d5761330c612c21565b5b600061331b88828901612e1f565b955050602061332c88828901612e1f565b945050604061333d88828901612d07565b935050606061334e88828901612d07565b925050608086013567ffffffffffffffff81111561336f5761336e612c26565b5b61337b88828901612fe3565b9150509295509295909350565b6000806000606084860312156133a1576133a0612c21565b5b60006133af86828701612d07565b93505060206133c086828701612d07565b92505060406133d186828701612d07565b9150509250925092565b6000806000606084860312156133f4576133f3612c21565b5b600061340286828701612d07565b935050602061341386828701612e1f565b925050604061342486828701612d07565b9150509250925092565b600082825260208201905092915050565b7f416363657373436f6e74726f6c3a2063616e206f6e6c792072656e6f756e636560008201527f20726f6c657320666f722073656c660000000000000000000000000000000000602082015250565b600061349b602f8361342e565b91506134a68261343f565b604082019050919050565b600060208201905081810360008301526134ca8161348e565b9050919050565b7f46756e6374696f6e206d7573742062652063616c6c6564207468726f7567682060008201527f64656c656761746563616c6c0000000000000000000000000000000000000000602082015250565b600061352d602c8361342e565b9150613538826134d1565b604082019050919050565b6000602082019050818103600083015261355c81613520565b9050919050565b7f46756e6374696f6e206d7573742062652063616c6c6564207468726f7567682060008201527f6163746976652070726f78790000000000000000000000000000000000000000602082015250565b60006135bf602c8361342e565b91506135ca82613563565b604082019050919050565b600060208201905081810360008301526135ee816135b2565b9050919050565b7f555550535570677261646561626c653a206d757374206e6f742062652063616c60008201527f6c6564207468726f7567682064656c656761746563616c6c0000000000000000602082015250565b600061365160388361342e565b915061365c826135f5565b604082019050919050565b6000602082019050818103600083015261368081613644565b9050919050565b7f43616e27742062652073657420746f20746865207a65726f2061646472657373600082015250565b60006136bd60208361342e565b91506136c882613687565b602082019050919050565b600060208201905081810360008301526136ec816136b0565b9050919050565b7f496e76616c6964206c697374696e670000000000000000000000000000000000600082015250565b6000613729600f8361342e565b9150613734826136f3565b602082019050919050565b600060208201905081810360008301526137588161371c565b9050919050565b7f496e697469616c697a61626c653a20636f6e747261637420697320616c72656160008201527f647920696e697469616c697a6564000000000000000000000000000000000000602082015250565b60006137bb602e8361342e565b91506137c68261375f565b604082019050919050565b600060208201905081810360008301526137ea816137ae565b9050919050565b6000819050919050565b600060ff82169050919050565b6000819050919050565b600061382d613828613823846137f1565b613808565b6137fb565b9050919050565b61383d81613812565b82525050565b60006020820190506138586000830184613834565b92915050565b7f496e76616c696420746f6b656e49640000000000000000000000000000000000600082015250565b6000613894600f8361342e565b915061389f8261385e565b602082019050919050565b600060208201905081810360008301526138c381613887565b9050919050565b7f416d6f756e74206d7573742062652067726561746572207468616e207a65726f600082015250565b600061390060208361342e565b915061390b826138ca565b602082019050919050565b6000602082019050818103600083015261392f816138f3565b9050919050565b7f5072696365206d7573742062652067726561746572207468616e207a65726f00600082015250565b600061396c601f8361342e565b915061397782613936565b602082019050919050565b6000602082019050818103600083015261399b8161395f565b9050919050565b60006040820190506139b76000830185613106565b6139c46020830184613106565b9392505050565b6139d481612cb0565b81146139df57600080fd5b50565b6000815190506139f1816139cb565b92915050565b600060208284031215613a0d57613a0c612c21565b5b6000613a1b848285016139e2565b91505092915050565b6000604082019050613a396000830185613106565b613a466020830184612ea1565b9392505050565b600081519050613a5c81612cf0565b92915050565b600060208284031215613a7857613a77612c21565b5b6000613a8684828501613a4d565b91505092915050565b7f4d697373696e67206d61726b6574706c61636520617070726f76616c00000000600082015250565b6000613ac5601c8361342e565b9150613ad082613a8f565b602082019050919050565b60006020820190508181036000830152613af481613ab8565b9050919050565b7f496e7375666963656e74204e46542062616c616e636500000000000000000000600082015250565b6000613b3160168361342e565b9150613b3c82613afb565b602082019050919050565b60006020820190508181036000830152613b6081613b24565b9050919050565b7f43616e2774207075726368617365204e6f7468696e6700000000000000000000600082015250565b6000613b9d60168361342e565b9150613ba882613b67565b602082019050919050565b60006020820190508181036000830152613bcc81613b90565b9050919050565b7f43616e2774207075726368617365206d6f7265207468616e206973206c69737460008201527f6564000000000000000000000000000000000000000000000000000000000000602082015250565b6000613c2f60228361342e565b9150613c3a82613bd3565b604082019050919050565b60006020820190508181036000830152613c5e81613c22565b9050919050565b7f4e487b7100000000000000000000000000000000000000000000000000000000600052601160045260246000fd5b6000613c9f82612ce6565b9150613caa83612ce6565b9250817fffffffffffffffffffffffffffffffffffffffffffffffffffffffffffffffff0483118215151615613ce357613ce2613c65565b5b828202905092915050565b6000819050919050565b6000613d13613d0e613d0984613cee565b613808565b612ce6565b9050919050565b613d2381613cf8565b82525050565b6000604082019050613d3e6000830185613106565b613d4b6020830184613d1a565b9392505050565b7f496e737566696369656e7420636f696e2062616c616e63650000000000000000600082015250565b6000613d8860188361342e565b9150613d9382613d52565b602082019050919050565b60006020820190508181036000830152613db781613d7b565b9050919050565b6000613dc982612ce6565b9150613dd483612ce6565b9250828203905081811115613dec57613deb613c65565b5b92915050565b6000613dfd82612ce6565b9150613e0883612ce6565b9250828201905080821115613e2057613e1f613c65565b5b92915050565b600082825260208201905092915050565b50565b6000613e47600083613e26565b9150613e5282613e37565b600082019050919050565b600060a082019050613e726000830187613106565b613e7f6020830186613106565b613e8c6040830185613d1a565b613e996060830184612ea1565b8181036080830152613eaa81613e3a565b905095945050505050565b600060a082019050613eca6000830187613106565b613ed76020830186613106565b613ee46040830185612ea1565b613ef16060830184612ea1565b8181036080830152613f0281613e3a565b905095945050505050565b600081519050613f1c81612d53565b92915050565b600060208284031215613f3857613f37612c21565b5b6000613f4684828501613f0d565b91505092915050565b7f45524331393637557067726164653a206e657720696d706c656d656e7461746960008201527f6f6e206973206e6f742055555053000000000000000000000000000000000000602082015250565b6000613fab602e8361342e565b9150613fb682613f4f565b604082019050919050565b60006020820190508181036000830152613fda81613f9e565b9050919050565b7f45524331393637557067726164653a20756e737570706f727465642070726f7860008201527f6961626c65555549440000000000000000000000000000000000000000000000602082015250565b600061403d60298361342e565b915061404882613fe1565b604082019050919050565b6000602082019050818103600083015261406c81614030565b9050919050565b7f4e6f2070726f636565647320617661696c61626c650000000000000000000000600082015250565b60006140a960158361342e565b91506140b482614073565b602082019050919050565b600060208201905081810360008301526140d88161409c565b9050919050565b7f496e697469616c697a61626c653a20636f6e7472616374206973206e6f74206960008201527f6e697469616c697a696e67000000000000000000000000000000000000000000602082015250565b600061413b602b8361342e565b9150614146826140df565b604082019050919050565b6000602082019050818103600083015261416a8161412e565b9050919050565b7f5265656e7472616e637947756172643a207265656e7472616e742063616c6c00600082015250565b60006141a7601f8361342e565b91506141b282614171565b602082019050919050565b600060208201905081810360008301526141d68161419a565b9050919050565b600081905092915050565b7f416363657373436f6e74726f6c3a206163636f756e7420000000000000000000600082015250565b600061421e6017836141dd565b9150614229826141e8565b601782019050919050565b600081519050919050565b60005b8381101561425d578082015181840152602081019050614242565b60008484015250505050565b600061427482614234565b61427e81856141dd565b935061428e81856020860161423f565b80840191505092915050565b7f206973206d697373696e6720726f6c6520000000000000000000000000000000600082015250565b60006142d06011836141dd565b91506142db8261429a565b601182019050919050565b60006142f182614211565b91506142fd8285614269565b9150614308826142c3565b91506143148284614269565b91508190509392505050565b600061432b82614234565b614335818561342e565b935061434581856020860161423f565b61434e81612ed5565b840191505092915050565b600060208201905081810360008301526143738184614320565b905092915050565b7f455243313936373a206e657720696d706c656d656e746174696f6e206973206e60008201527f6f74206120636f6e747261637400000000000000000000000000000000000000602082015250565b60006143d7602d8361342e565b91506143e28261437b565b604082019050919050565b60006020820190508181036000830152614406816143ca565b9050919050565b7f5061757361626c653a206e6f7420706175736564000000000000000000000000600082015250565b600061444360148361342e565b915061444e8261440d565b602082019050919050565b6000602082019050818103600083015261447281614436565b9050919050565b7f5061757361626c653a2070617573656400000000000000000000000000000000600082015250565b60006144af60108361342e565b91506144ba82614479565b602082019050919050565b600060208201905081810360008301526144de816144a2565b9050919050565b7f4e487b7100000000000000000000000000000000000000000000000000000000600052603260045260246000fd5b600061451f82612ce6565b91506000820361453257614531613c65565b5b600182039050919050565b7f537472696e67733a20686578206c656e67746820696e73756666696369656e74600082015250565b600061457360208361342e565b915061457e8261453d565b602082019050919050565b600060208201905081810360008301526145a281614566565b9050919050565b7f416464726573733a2064656c65676174652063616c6c20746f206e6f6e2d636f60008201527f6e74726163740000000000000000000000000000000000000000000000000000602082015250565b600061460560268361342e565b9150614610826145a9565b604082019050919050565b60006020820190508181036000830152614634816145f8565b9050919050565b600081519050919050565b600081905092915050565b600061465c8261463b565b6146668185614646565b935061467681856020860161423f565b80840191505092915050565b600061468e8284614651565b91508190509291505056fe416464726573733a206c6f772d6c6576656c2064656c65676174652063616c6c206661696c6564a2646970667358221220aef0856c996a579d9afb7d7fb01b657dd2a1af3815526a50d398649e41ee727664736f6c63430008100033",
  "immutableReferences": {
    "997": [
      {
        "length": 32,
        "start": 2282
      },
      {
        "length": 32,
        "start": 2424
      },
      {
        "length": 32,
        "start": 2727
      },
      {
        "length": 32,
        "start": 2869
      },
      {
        "length": 32,
        "start": 3045
      }
    ]
  },
  "source": "// SPDX-License-Identifier: MIT\npragma solidity ^0.8.4;\n\nimport \"@openzeppelin/contracts/token/ERC1155/IERC1155.sol\";\n\nimport \"@openzeppelin/contracts-upgradeable/security/PausableUpgradeable.sol\";\nimport \"@openzeppelin/contracts-upgradeable/access/AccessControlUpgradeable.sol\";\nimport \"@openzeppelin/contracts-upgradeable/proxy/utils/Initializable.sol\";\nimport \"@openzeppelin/contracts-upgradeable/proxy/utils/UUPSUpgradeable.sol\";\nimport \"@openzeppelin/contracts-upgradeable/token/ERC1155/utils/ERC1155HolderUpgradeable.sol\";\nimport \"@openzeppelin/contracts-upgradeable/security/ReentrancyGuardUpgradeable.sol\";\n\nimport \"./IWNSMarketplace.sol\";\n\ncontract Marketplace is\n    iMarketplace,\n    Initializable,\n    PausableUpgradeable,\n    AccessControlUpgradeable,\n    UUPSUpgradeable,\n    ERC1155HolderUpgradeable,\n    ReentrancyGuardUpgradeable\n{\n    bytes32 public constant PAUSER_ROLE = keccak256(\"PAUSER_ROLE\");\n    bytes32 public constant MANAGER_ROLE = keccak256(\"MANAGER_ROLE\");\n    bytes32 public constant UPGRADER_ROLE = keccak256(\"UPGRADER_ROLE\");\n    mapping(address => uint256) private proceeds;\n    mapping(uint256 => mapping(address => MarketOrder)) private orderBook;\n\n    uint256 public listingFee;\n    address public _nftAddress;\n    IERC1155 private nftContract;\n\n    modifier canSell(\n        uint256 tokenId,\n        uint256 amount,\n        uint256 price\n    ) {\n        // run checks for tokenId, price validity, approval, and token balance\n\n        require(tokenId > 0, \"Invalid tokenId\");\n        require(amount > 0, \"Amount must be greater than zero\");\n        require(price > 0, \"Price must be greater than zero\");\n\n        bool approval = nftContract.isApprovedForAll(msg.sender, address(this));\n        uint256 nftBalance = nftContract.balanceOf(msg.sender, tokenId);\n\n        require(approval == true, \"Missing marketplace approval\");\n        require(amount <= nftBalance, \"Insuficent NFT balance\");\n        _;\n    }\n\n    /// @custom:oz-upgrades-unsafe-allow constructor\n    constructor() {\n        _disableInitializers();\n    }\n\n    function initialize(address nftAddress) public initializer {\n        __Pausable_init();\n        __AccessControl_init();\n        __UUPSUpgradeable_init();\n        __ERC1155Holder_init();\n        __ReentrancyGuard_init();\n\n        _grantRole(DEFAULT_ADMIN_ROLE, msg.sender);\n        _grantRole(PAUSER_ROLE, msg.sender);\n        _grantRole(MANAGER_ROLE, msg.sender);\n        _grantRole(UPGRADER_ROLE, msg.sender);\n\n        setNftContract(nftAddress);\n        listingFee = 1;\n    }\n\n    function updateListing(\n        uint256 tokenId,\n        uint256 amount,\n        uint256 price\n    ) external canSell(tokenId, amount, price) nonReentrant {\n        orderBook[tokenId][msg.sender] = MarketOrder(amount, price);\n        emit ItemListed(msg.sender, tokenId, price, amount);\n    }\n\n    function cancelListing(uint256 tokenId) external {\n        emit ItemDelisted(msg.sender, tokenId);\n        delete (orderBook[tokenId][msg.sender]);\n    }\n\n    function buyFromListing(\n        uint256 tokenId,\n        address seller,\n        uint256 amount\n    ) external {\n        MarketOrder memory order = orderBook[tokenId][seller];\n        require(order.price > 0, \"Invalid listing\");\n        require(order.amount > 0, \"Invalid listing\");\n        require(amount > 0, \"Can't purchase Nothing\");\n        require(amount <= order.amount, \"Can't purchase more than is listed\");\n\n        uint256 cost = order.price * amount;\n        uint256 fee = listingFee * amount;\n        uint256 coinBalance = nftContract.balanceOf(msg.sender, 0);\n        require(coinBalance >= cost, \"Insuficient coin balance\");\n\n        orderBook[tokenId][seller].amount -= amount;\n        proceeds[seller] += cost - fee;\n        proceeds[address(this)] += fee;\n\n        nftContract.safeTransferFrom(msg.sender, address(this), 0, fee, \"\");\n\n        onERC1155Received(address(this), msg.sender, tokenId, amount, \"\");\n        nftContract.safeTransferFrom(seller, msg.sender, tokenId, amount, \"\");\n\n        emit ItemBought(msg.sender, tokenId, order.price, amount);\n    }\n\n    function withdrawProceeds() external {\n        _withdrawProceeds(msg.sender);\n    }\n\n    function adminWithdrawal() external onlyRole(DEFAULT_ADMIN_ROLE) {\n        _withdrawProceeds(address(this));\n    }\n\n    function getProceeds(address account) external view returns (uint256) {\n        return proceeds[account];\n    }\n\n    function getListing(uint256 tokenId, address seller)\n        external\n        view\n        returns (MarketOrder memory)\n    {\n        MarketOrder memory order = orderBook[tokenId][seller];\n\n        require(order.price > 0, \"Invalid listing\");\n        require(order.amount > 0, \"Invalid listing\");\n        return order;\n    }\n\n    function setListingFee(uint fee) external onlyRole(MANAGER_ROLE) {\n        listingFee = fee;\n    }\n\n    function setNftContract(address nftAddress) public onlyRole(MANAGER_ROLE) {\n        require(nftAddress != address(0), \"Can't be set to the zero address\");\n        _nftAddress = nftAddress;\n        nftContract = IERC1155(_nftAddress);\n    }\n\n    function pause() public onlyRole(PAUSER_ROLE) {\n        _pause();\n    }\n\n    function unpause() public onlyRole(PAUSER_ROLE) {\n        _unpause();\n    }\n\n    function supportsInterface(bytes4 interfaceId)\n        public\n        view\n        override(ERC1155ReceiverUpgradeable, AccessControlUpgradeable)\n        returns (bool)\n    {\n        return super.supportsInterface(interfaceId);\n    }\n\n    function _afterBuy(uint256 tokenId, address seller) internal {\n        if (orderBook[tokenId][seller].amount == 0) {\n            delete (orderBook[tokenId][seller]);\n        }\n    }\n\n    function _authorizeUpgrade(address newImplementation)\n        internal\n        override\n        onlyRole(UPGRADER_ROLE)\n    {}\n\n    function _withdrawProceeds(address account) private {\n        uint256 coins = proceeds[account];\n        require(coins > 0, \"No proceeds available\");\n        proceeds[account] = 0;\n        nftContract.safeTransferFrom(address(this), msg.sender, 0, coins, \"\");\n    }\n}\n",
  "sourcePath": "/home/ichristwin/Dev/WNS/contracts/WNSMarketplace.sol",
  "compiler": {
    "name": "solc",
    "version": "0.8.16+commit.07a7930e.Emscripten.clang"
  },
  "schemaVersion": "3.4.9",
  "updatedAt": "2022-11-02T11:40:33.093Z",
  "devdoc": {
    "kind": "dev",
    "methods": {
      "constructor": {
        "custom:oz-upgrades-unsafe-allow": "constructor"
      },
      "getRoleAdmin(bytes32)": {
        "details": "Returns the admin role that controls `role`. See {grantRole} and {revokeRole}. To change a role's admin, use {_setRoleAdmin}."
      },
      "grantRole(bytes32,address)": {
        "details": "Grants `role` to `account`. If `account` had not been already granted `role`, emits a {RoleGranted} event. Requirements: - the caller must have ``role``'s admin role. May emit a {RoleGranted} event."
      },
      "hasRole(bytes32,address)": {
        "details": "Returns `true` if `account` has been granted `role`."
      },
      "paused()": {
        "details": "Returns true if the contract is paused, and false otherwise."
      },
      "proxiableUUID()": {
        "details": "Implementation of the ERC1822 {proxiableUUID} function. This returns the storage slot used by the implementation. It is used to validate the implementation's compatibility when performing an upgrade. IMPORTANT: A proxy pointing at a proxiable contract should not be considered proxiable itself, because this risks bricking a proxy that upgrades to it, by delegating to itself until out of gas. Thus it is critical that this function revert if invoked through a proxy. This is guaranteed by the `notDelegated` modifier."
      },
      "renounceRole(bytes32,address)": {
        "details": "Revokes `role` from the calling account. Roles are often managed via {grantRole} and {revokeRole}: this function's purpose is to provide a mechanism for accounts to lose their privileges if they are compromised (such as when a trusted device is misplaced). If the calling account had been revoked `role`, emits a {RoleRevoked} event. Requirements: - the caller must be `account`. May emit a {RoleRevoked} event."
      },
      "revokeRole(bytes32,address)": {
        "details": "Revokes `role` from `account`. If `account` had been granted `role`, emits a {RoleRevoked} event. Requirements: - the caller must have ``role``'s admin role. May emit a {RoleRevoked} event."
      },
      "upgradeTo(address)": {
        "details": "Upgrade the implementation of the proxy to `newImplementation`. Calls {_authorizeUpgrade}. Emits an {Upgraded} event."
      },
      "upgradeToAndCall(address,bytes)": {
        "details": "Upgrade the implementation of the proxy to `newImplementation`, and subsequently execute the function call encoded in `data`. Calls {_authorizeUpgrade}. Emits an {Upgraded} event."
      }
    },
    "version": 1
  },
  "userdoc": {
    "kind": "user",
    "methods": {},
    "version": 1
  }
}