{
  "contractName": "WNS",
  "abi": [
    {
      "inputs": [],
      "stateMutability": "nonpayable",
      "type": "constructor"
    },
    {
      "anonymous": false,
      "inputs": [
        {
          "indexed": false,
          "internalType": "address",
          "name": "previousAdmin",
          "type": "address"
        },
        {
          "indexed": false,
          "internalType": "address",
          "name": "newAdmin",
          "type": "address"
        }
      ],
      "name": "AdminChanged",
      "type": "event"
    },
    {
      "anonymous": false,
      "inputs": [
        {
          "indexed": true,
          "internalType": "address",
          "name": "account",
          "type": "address"
        },
        {
          "indexed": true,
          "internalType": "address",
          "name": "operator",
          "type": "address"
        },
        {
          "indexed": false,
          "internalType": "bool",
          "name": "approved",
          "type": "bool"
        }
      ],
      "name": "ApprovalForAll",
      "type": "event"
    },
    {
      "anonymous": false,
      "inputs": [
        {
          "indexed": true,
          "internalType": "address",
          "name": "beacon",
          "type": "address"
        }
      ],
      "name": "BeaconUpgraded",
      "type": "event"
    },
    {
      "anonymous": false,
      "inputs": [
        {
          "indexed": false,
          "internalType": "address",
          "name": "to",
          "type": "address"
        },
        {
          "indexed": true,
          "internalType": "uint256",
          "name": "amount",
          "type": "uint256"
        },
        {
          "indexed": true,
          "internalType": "uint256",
          "name": "id",
          "type": "uint256"
        },
        {
          "indexed": true,
          "internalType": "uint256",
          "name": "timestamp",
          "type": "uint256"
        }
      ],
      "name": "Claim",
      "type": "event"
    },
    {
      "anonymous": false,
      "inputs": [
        {
          "indexed": false,
          "internalType": "uint8",
          "name": "version",
          "type": "uint8"
        }
      ],
      "name": "Initialized",
      "type": "event"
    },
    {
      "anonymous": false,
      "inputs": [
        {
          "indexed": false,
          "internalType": "address",
          "name": "from",
          "type": "address"
        },
        {
          "indexed": true,
          "internalType": "uint256",
          "name": "amount",
          "type": "uint256"
        },
        {
          "indexed": true,
          "internalType": "uint256",
          "name": "id",
          "type": "uint256"
        },
        {
          "indexed": true,
          "internalType": "uint256",
          "name": "timestamp",
          "type": "uint256"
        }
      ],
      "name": "Revenue",
      "type": "event"
    },
    {
      "anonymous": false,
      "inputs": [
        {
          "indexed": true,
          "internalType": "bytes32",
          "name": "role",
          "type": "bytes32"
        },
        {
          "indexed": true,
          "internalType": "bytes32",
          "name": "previousAdminRole",
          "type": "bytes32"
        },
        {
          "indexed": true,
          "internalType": "bytes32",
          "name": "newAdminRole",
          "type": "bytes32"
        }
      ],
      "name": "RoleAdminChanged",
      "type": "event"
    },
    {
      "anonymous": false,
      "inputs": [
        {
          "indexed": true,
          "internalType": "bytes32",
          "name": "role",
          "type": "bytes32"
        },
        {
          "indexed": true,
          "internalType": "address",
          "name": "account",
          "type": "address"
        },
        {
          "indexed": true,
          "internalType": "address",
          "name": "sender",
          "type": "address"
        }
      ],
      "name": "RoleGranted",
      "type": "event"
    },
    {
      "anonymous": false,
      "inputs": [
        {
          "indexed": true,
          "internalType": "bytes32",
          "name": "role",
          "type": "bytes32"
        },
        {
          "indexed": true,
          "internalType": "address",
          "name": "account",
          "type": "address"
        },
        {
          "indexed": true,
          "internalType": "address",
          "name": "sender",
          "type": "address"
        }
      ],
      "name": "RoleRevoked",
      "type": "event"
    },
    {
      "anonymous": false,
      "inputs": [
        {
          "indexed": true,
          "internalType": "address",
          "name": "operator",
          "type": "address"
        },
        {
          "indexed": true,
          "internalType": "address",
          "name": "from",
          "type": "address"
        },
        {
          "indexed": true,
          "internalType": "address",
          "name": "to",
          "type": "address"
        },
        {
          "indexed": false,
          "internalType": "uint256[]",
          "name": "ids",
          "type": "uint256[]"
        },
        {
          "indexed": false,
          "internalType": "uint256[]",
          "name": "values",
          "type": "uint256[]"
        }
      ],
      "name": "TransferBatch",
      "type": "event"
    },
    {
      "anonymous": false,
      "inputs": [
        {
          "indexed": true,
          "internalType": "address",
          "name": "operator",
          "type": "address"
        },
        {
          "indexed": true,
          "internalType": "address",
          "name": "from",
          "type": "address"
        },
        {
          "indexed": true,
          "internalType": "address",
          "name": "to",
          "type": "address"
        },
        {
          "indexed": false,
          "internalType": "uint256",
          "name": "id",
          "type": "uint256"
        },
        {
          "indexed": false,
          "internalType": "uint256",
          "name": "value",
          "type": "uint256"
        }
      ],
      "name": "TransferSingle",
      "type": "event"
    },
    {
      "anonymous": false,
      "inputs": [
        {
          "indexed": false,
          "internalType": "string",
          "name": "value",
          "type": "string"
        },
        {
          "indexed": true,
          "internalType": "uint256",
          "name": "id",
          "type": "uint256"
        }
      ],
      "name": "URI",
      "type": "event"
    },
    {
      "anonymous": false,
      "inputs": [
        {
          "indexed": true,
          "internalType": "address",
          "name": "implementation",
          "type": "address"
        }
      ],
      "name": "Upgraded",
      "type": "event"
    },
    {
      "inputs": [],
      "name": "DEFAULT_ADMIN_ROLE",
      "outputs": [
        {
          "internalType": "bytes32",
          "name": "",
          "type": "bytes32"
        }
      ],
      "stateMutability": "view",
      "type": "function"
    },
    {
      "inputs": [],
      "name": "MANAGER_ROLE",
      "outputs": [
        {
          "internalType": "bytes32",
          "name": "",
          "type": "bytes32"
        }
      ],
      "stateMutability": "view",
      "type": "function"
    },
    {
      "inputs": [
        {
          "internalType": "address",
          "name": "account",
          "type": "address"
        },
        {
          "internalType": "uint256",
          "name": "id",
          "type": "uint256"
        }
      ],
      "name": "balanceOf",
      "outputs": [
        {
          "internalType": "uint256",
          "name": "",
          "type": "uint256"
        }
      ],
      "stateMutability": "view",
      "type": "function"
    },
    {
      "inputs": [
        {
          "internalType": "address[]",
          "name": "accounts",
          "type": "address[]"
        },
        {
          "internalType": "uint256[]",
          "name": "ids",
          "type": "uint256[]"
        }
      ],
      "name": "balanceOfBatch",
      "outputs": [
        {
          "internalType": "uint256[]",
          "name": "",
          "type": "uint256[]"
        }
      ],
      "stateMutability": "view",
      "type": "function"
    },
    {
      "inputs": [
        {
          "internalType": "address",
          "name": "account",
          "type": "address"
        },
        {
          "internalType": "uint256",
          "name": "id",
          "type": "uint256"
        },
        {
          "internalType": "uint256",
          "name": "value",
          "type": "uint256"
        }
      ],
      "name": "burn",
      "outputs": [],
      "stateMutability": "nonpayable",
      "type": "function"
    },
    {
      "inputs": [
        {
          "internalType": "address",
          "name": "account",
          "type": "address"
        },
        {
          "internalType": "uint256[]",
          "name": "ids",
          "type": "uint256[]"
        },
        {
          "internalType": "uint256[]",
          "name": "values",
          "type": "uint256[]"
        }
      ],
      "name": "burnBatch",
      "outputs": [],
      "stateMutability": "nonpayable",
      "type": "function"
    },
    {
      "inputs": [
        {
          "internalType": "uint256",
          "name": "id",
          "type": "uint256"
        }
      ],
      "name": "exists",
      "outputs": [
        {
          "internalType": "bool",
          "name": "",
          "type": "bool"
        }
      ],
      "stateMutability": "view",
      "type": "function"
    },
    {
      "inputs": [
        {
          "internalType": "bytes32",
          "name": "role",
          "type": "bytes32"
        }
      ],
      "name": "getRoleAdmin",
      "outputs": [
        {
          "internalType": "bytes32",
          "name": "",
          "type": "bytes32"
        }
      ],
      "stateMutability": "view",
      "type": "function"
    },
    {
      "inputs": [
        {
          "internalType": "bytes32",
          "name": "role",
          "type": "bytes32"
        },
        {
          "internalType": "address",
          "name": "account",
          "type": "address"
        }
      ],
      "name": "grantRole",
      "outputs": [],
      "stateMutability": "nonpayable",
      "type": "function"
    },
    {
      "inputs": [
        {
          "internalType": "bytes32",
          "name": "role",
          "type": "bytes32"
        },
        {
          "internalType": "address",
          "name": "account",
          "type": "address"
        }
      ],
      "name": "hasRole",
      "outputs": [
        {
          "internalType": "bool",
          "name": "",
          "type": "bool"
        }
      ],
      "stateMutability": "view",
      "type": "function"
    },
    {
      "inputs": [
        {
          "internalType": "address",
          "name": "account",
          "type": "address"
        },
        {
          "internalType": "address",
          "name": "operator",
          "type": "address"
        }
      ],
      "name": "isApprovedForAll",
      "outputs": [
        {
          "internalType": "bool",
          "name": "",
          "type": "bool"
        }
      ],
      "stateMutability": "view",
      "type": "function"
    },
    {
      "inputs": [],
      "name": "proxiableUUID",
      "outputs": [
        {
          "internalType": "bytes32",
          "name": "",
          "type": "bytes32"
        }
      ],
      "stateMutability": "view",
      "type": "function"
    },
    {
      "inputs": [
        {
          "internalType": "bytes32",
          "name": "role",
          "type": "bytes32"
        },
        {
          "internalType": "address",
          "name": "account",
          "type": "address"
        }
      ],
      "name": "renounceRole",
      "outputs": [],
      "stateMutability": "nonpayable",
      "type": "function"
    },
    {
      "inputs": [
        {
          "internalType": "bytes32",
          "name": "role",
          "type": "bytes32"
        },
        {
          "internalType": "address",
          "name": "account",
          "type": "address"
        }
      ],
      "name": "revokeRole",
      "outputs": [],
      "stateMutability": "nonpayable",
      "type": "function"
    },
    {
      "inputs": [
        {
          "internalType": "address",
          "name": "from",
          "type": "address"
        },
        {
          "internalType": "address",
          "name": "to",
          "type": "address"
        },
        {
          "internalType": "uint256[]",
          "name": "ids",
          "type": "uint256[]"
        },
        {
          "internalType": "uint256[]",
          "name": "amounts",
          "type": "uint256[]"
        },
        {
          "internalType": "bytes",
          "name": "data",
          "type": "bytes"
        }
      ],
      "name": "safeBatchTransferFrom",
      "outputs": [],
      "stateMutability": "nonpayable",
      "type": "function"
    },
    {
      "inputs": [
        {
          "internalType": "address",
          "name": "from",
          "type": "address"
        },
        {
          "internalType": "address",
          "name": "to",
          "type": "address"
        },
        {
          "internalType": "uint256",
          "name": "id",
          "type": "uint256"
        },
        {
          "internalType": "uint256",
          "name": "amount",
          "type": "uint256"
        },
        {
          "internalType": "bytes",
          "name": "data",
          "type": "bytes"
        }
      ],
      "name": "safeTransferFrom",
      "outputs": [],
      "stateMutability": "nonpayable",
      "type": "function"
    },
    {
      "inputs": [
        {
          "internalType": "address",
          "name": "operator",
          "type": "address"
        },
        {
          "internalType": "bool",
          "name": "approved",
          "type": "bool"
        }
      ],
      "name": "setApprovalForAll",
      "outputs": [],
      "stateMutability": "nonpayable",
      "type": "function"
    },
    {
      "inputs": [
        {
          "internalType": "uint256",
          "name": "id",
          "type": "uint256"
        }
      ],
      "name": "totalSupply",
      "outputs": [
        {
          "internalType": "uint256",
          "name": "",
          "type": "uint256"
        }
      ],
      "stateMutability": "view",
      "type": "function"
    },
    {
      "inputs": [
        {
          "internalType": "address",
          "name": "newImplementation",
          "type": "address"
        }
      ],
      "name": "upgradeTo",
      "outputs": [],
      "stateMutability": "nonpayable",
      "type": "function"
    },
    {
      "inputs": [
        {
          "internalType": "address",
          "name": "newImplementation",
          "type": "address"
        },
        {
          "internalType": "bytes",
          "name": "data",
          "type": "bytes"
        }
      ],
      "name": "upgradeToAndCall",
      "outputs": [],
      "stateMutability": "payable",
      "type": "function"
    },
    {
      "inputs": [
        {
          "internalType": "uint256",
          "name": "",
          "type": "uint256"
        }
      ],
      "name": "uri",
      "outputs": [
        {
          "internalType": "string",
          "name": "",
          "type": "string"
        }
      ],
      "stateMutability": "view",
      "type": "function"
    },
    {
      "inputs": [
        {
          "internalType": "address",
          "name": "to",
          "type": "address"
        },
        {
          "internalType": "uint256",
          "name": "id",
          "type": "uint256"
        }
      ],
      "name": "setDeveloper",
      "outputs": [],
      "stateMutability": "nonpayable",
      "type": "function"
    },
    {
      "inputs": [
        {
          "internalType": "uint256",
          "name": "id",
          "type": "uint256"
        },
        {
          "internalType": "uint256",
          "name": "amount",
          "type": "uint256"
        }
      ],
      "name": "pay",
      "outputs": [],
      "stateMutability": "nonpayable",
      "type": "function"
    },
    {
      "inputs": [
        {
          "internalType": "uint256",
          "name": "id",
          "type": "uint256"
        }
      ],
      "name": "revenueOf",
      "outputs": [
        {
          "internalType": "uint256",
          "name": "",
          "type": "uint256"
        }
      ],
      "stateMutability": "view",
      "type": "function"
    },
    {
      "inputs": [
        {
          "internalType": "uint256[]",
          "name": "ids",
          "type": "uint256[]"
        }
      ],
      "name": "claimFunds",
      "outputs": [],
      "stateMutability": "nonpayable",
      "type": "function"
    },
    {
      "inputs": [],
      "name": "initialize",
      "outputs": [],
      "stateMutability": "nonpayable",
      "type": "function"
    },
    {
      "inputs": [
        {
          "internalType": "address",
          "name": "account",
          "type": "address"
        },
        {
          "internalType": "uint256",
          "name": "id",
          "type": "uint256"
        },
        {
          "internalType": "uint256",
          "name": "amount",
          "type": "uint256"
        },
        {
          "internalType": "bytes",
          "name": "data",
          "type": "bytes"
        }
      ],
      "name": "mint",
      "outputs": [],
      "stateMutability": "nonpayable",
      "type": "function"
    },
    {
      "inputs": [
        {
          "internalType": "address",
          "name": "to",
          "type": "address"
        },
        {
          "internalType": "uint256[]",
          "name": "ids",
          "type": "uint256[]"
        },
        {
          "internalType": "uint256[]",
          "name": "amounts",
          "type": "uint256[]"
        },
        {
          "internalType": "bytes",
          "name": "data",
          "type": "bytes"
        }
      ],
      "name": "mintBatch",
      "outputs": [],
      "stateMutability": "nonpayable",
      "type": "function"
    },
    {
      "inputs": [
        {
          "internalType": "bytes4",
          "name": "interfaceId",
          "type": "bytes4"
        }
      ],
      "name": "supportsInterface",
      "outputs": [
        {
          "internalType": "bool",
          "name": "",
          "type": "bool"
        }
      ],
      "stateMutability": "view",
      "type": "function"
    }
  ],
  "bytecode": "0x60a06040523073ffffffffffffffffffffffffffffffffffffffff1660809073ffffffffffffffffffffffffffffffffffffffff168152503480156200004457600080fd5b50620000556200005b60201b60201c565b62000206565b600060019054906101000a900460ff1615620000ae576040517f08c379a0000000000000000000000000000000000000000000000000000000008152600401620000a590620001a9565b60405180910390fd5b60ff801660008054906101000a900460ff1660ff161015620001205760ff6000806101000a81548160ff021916908360ff1602179055507f7f26b83ff96e1f2b6a682f133852f6798a09c465da95921460cefb384740249860ff604051620001179190620001e9565b60405180910390a15b565b600082825260208201905092915050565b7f496e697469616c697a61626c653a20636f6e747261637420697320696e69746960008201527f616c697a696e6700000000000000000000000000000000000000000000000000602082015250565b60006200019160278362000122565b91506200019e8262000133565b604082019050919050565b60006020820190508181036000830152620001c48162000182565b9050919050565b600060ff82169050919050565b620001e381620001cb565b82525050565b6000602082019050620002006000830184620001d8565b92915050565b6080516160196200023e60003960008181610a2d01528181610abb01528181610cce01528181610d5c0152610e2001526160196000f3fe6080604052600436106101c15760003560e01c80636b20c454116100f7578063bd85b03911610095578063ec87621c11610064578063ec87621c14610674578063ef48eee61461069f578063f242432a146106c8578063f5298aca146106f1576101c1565b8063bd85b03914610594578063d547741f146105d1578063d7c3a520146105fa578063e985e9c514610637576101c1565b806391d14854116100d157806391d14854146104da578063a217fddf14610517578063a22cb46514610542578063bbbb80521461056b576101c1565b80636b20c45414610471578063731133e91461049a5780638129fc1c146104c3576101c1565b806336568abe116101645780634f1ef2861161013e5780634f1ef286146103c45780634f558e79146103e057806352d1902d1461041d5780636317979514610448576101c1565b806336568abe146103355780633659cfe61461035e5780634e1273f414610387576101c1565b80631f7fdffa116101a05780631f7fdffa1461027d578063248a9ca3146102a65780632eb2c2d6146102e35780632f2ff15d1461030c576101c1565b8062fdd58e146101c657806301ffc9a7146102035780630e89341c14610240575b600080fd5b3480156101d257600080fd5b506101ed60048036038101906101e89190613c26565b61071a565b6040516101fa9190613c75565b60405180910390f35b34801561020f57600080fd5b5061022a60048036038101906102259190613ce8565b6107e3565b6040516102379190613d30565b60405180910390f35b34801561024c57600080fd5b5061026760048036038101906102629190613d4b565b6107f5565b6040516102749190613e08565b60405180910390f35b34801561028957600080fd5b506102a4600480360381019061029f9190614027565b610889565b005b3480156102b257600080fd5b506102cd60048036038101906102c89190614118565b6108c6565b6040516102da9190614154565b60405180910390f35b3480156102ef57600080fd5b5061030a6004803603810190610305919061416f565b6108e6565b005b34801561031857600080fd5b50610333600480360381019061032e919061423e565b610987565b005b34801561034157600080fd5b5061035c6004803603810190610357919061423e565b6109a8565b005b34801561036a57600080fd5b506103856004803603810190610380919061427e565b610a2b565b005b34801561039357600080fd5b506103ae60048036038101906103a9919061436e565b610bb3565b6040516103bb91906144a4565b60405180910390f35b6103de60048036038101906103d991906144c6565b610ccc565b005b3480156103ec57600080fd5b5061040760048036038101906104029190613d4b565b610e08565b6040516104149190613d30565b60405180910390f35b34801561042957600080fd5b50610432610e1c565b60405161043f9190614154565b60405180910390f35b34801561045457600080fd5b5061046f600480360381019061046a9190614522565b610ed5565b005b34801561047d57600080fd5b506104986004803603810190610493919061456b565b611092565b005b3480156104a657600080fd5b506104c160048036038101906104bc91906145f6565b61112f565b005b3480156104cf57600080fd5b506104d861116c565b005b3480156104e657600080fd5b5061050160048036038101906104fc919061423e565b611337565b60405161050e9190613d30565b60405180910390f35b34801561052357600080fd5b5061052c6113a2565b6040516105399190614154565b60405180910390f35b34801561054e57600080fd5b50610569600480360381019061056491906146a5565b6113a9565b005b34801561057757600080fd5b50610592600480360381019061058d9190613c26565b6113bf565b005b3480156105a057600080fd5b506105bb60048036038101906105b69190613d4b565b611441565b6040516105c89190613c75565b60405180910390f35b3480156105dd57600080fd5b506105f860048036038101906105f3919061423e565b61145e565b005b34801561060657600080fd5b50610621600480360381019061061c9190613d4b565b61147f565b60405161062e9190613c75565b60405180910390f35b34801561064357600080fd5b5061065e600480360381019061065991906146e5565b61149d565b60405161066b9190613d30565b60405180910390f35b34801561068057600080fd5b50610689611531565b6040516106969190614154565b60405180910390f35b3480156106ab57600080fd5b506106c660048036038101906106c19190614725565b611555565b005b3480156106d457600080fd5b506106ef60048036038101906106ea9190614765565b6116c7565b005b3480156106fd57600080fd5b50610718600480360381019061071391906147fc565b611768565b005b60008073ffffffffffffffffffffffffffffffffffffffff168373ffffffffffffffffffffffffffffffffffffffff160361078a576040517f08c379a0000000000000000000000000000000000000000000000000000000008152600401610781906148c1565b60405180910390fd5b6065600083815260200190815260200160002060008473ffffffffffffffffffffffffffffffffffffffff1673ffffffffffffffffffffffffffffffffffffffff16815260200190815260200160002054905092915050565b60006107ee82611805565b9050919050565b60606067805461080490614910565b80601f016020809104026020016040519081016040528092919081815260200182805461083090614910565b801561087d5780601f106108525761010080835404028352916020019161087d565b820191906000526020600020905b81548152906001019060200180831161086057829003601f168201915b50505050509050919050565b7f241ecf16d79d0f8dbfb92cbc07fe17840425976cf0667f022fe9877caa831b086108b38161187f565b6108bf85858585611893565b5050505050565b600060c96000838152602001908152602001600020600101549050919050565b6108ee611ac0565b73ffffffffffffffffffffffffffffffffffffffff168573ffffffffffffffffffffffffffffffffffffffff16148061093457506109338561092e611ac0565b61149d565b5b610973576040517f08c379a000000000000000000000000000000000000000000000000000000000815260040161096a906149b3565b60405180910390fd5b6109808585858585611ac8565b5050505050565b610990826108c6565b6109998161187f565b6109a38383611dec565b505050565b6109b0611ac0565b73ffffffffffffffffffffffffffffffffffffffff168173ffffffffffffffffffffffffffffffffffffffff1614610a1d576040517f08c379a0000000000000000000000000000000000000000000000000000000008152600401610a1490614a45565b60405180910390fd5b610a278282611ecd565b5050565b7f000000000000000000000000000000000000000000000000000000000000000073ffffffffffffffffffffffffffffffffffffffff163073ffffffffffffffffffffffffffffffffffffffff1603610ab9576040517f08c379a0000000000000000000000000000000000000000000000000000000008152600401610ab090614ad7565b60405180910390fd5b7f000000000000000000000000000000000000000000000000000000000000000073ffffffffffffffffffffffffffffffffffffffff16610af8611faf565b73ffffffffffffffffffffffffffffffffffffffff1614610b4e576040517f08c379a0000000000000000000000000000000000000000000000000000000008152600401610b4590614b69565b60405180910390fd5b610b5781612006565b610bb081600067ffffffffffffffff811115610b7657610b75613e2f565b5b6040519080825280601f01601f191660200182016040528015610ba85781602001600182028036833780820191505090505b506000612017565b50565b60608151835114610bf9576040517f08c379a0000000000000000000000000000000000000000000000000000000008152600401610bf090614bfb565b60405180910390fd5b6000835167ffffffffffffffff811115610c1657610c15613e2f565b5b604051908082528060200260200182016040528015610c445781602001602082028036833780820191505090505b50905060005b8451811015610cc157610c91858281518110610c6957610c68614c1b565b5b6020026020010151858381518110610c8457610c83614c1b565b5b602002602001015161071a565b828281518110610ca457610ca3614c1b565b5b60200260200101818152505080610cba90614c79565b9050610c4a565b508091505092915050565b7f000000000000000000000000000000000000000000000000000000000000000073ffffffffffffffffffffffffffffffffffffffff163073ffffffffffffffffffffffffffffffffffffffff1603610d5a576040517f08c379a0000000000000000000000000000000000000000000000000000000008152600401610d5190614ad7565b60405180910390fd5b7f000000000000000000000000000000000000000000000000000000000000000073ffffffffffffffffffffffffffffffffffffffff16610d99611faf565b73ffffffffffffffffffffffffffffffffffffffff1614610def576040517f08c379a0000000000000000000000000000000000000000000000000000000008152600401610de690614b69565b60405180910390fd5b610df882612006565b610e0482826001612017565b5050565b600080610e1483611441565b119050919050565b60007f000000000000000000000000000000000000000000000000000000000000000073ffffffffffffffffffffffffffffffffffffffff163073ffffffffffffffffffffffffffffffffffffffff1614610eac576040517f08c379a0000000000000000000000000000000000000000000000000000000008152600401610ea390614d33565b60405180910390fd5b7f360894a13ba1a3210667c828492db98dca3e2076cc3735a920a3ca505d382bbc60001b905090565b600061019360003373ffffffffffffffffffffffffffffffffffffffff1673ffffffffffffffffffffffffffffffffffffffff1681526020019081526020016000205490506000811115610f6a57600061019360003373ffffffffffffffffffffffffffffffffffffffff1673ffffffffffffffffffffffffffffffffffffffff168152602001908152602001600020819055505b60005b825181101561103e576000838281518110610f8b57610f8a614c1b565b5b60200260200101519050610f9e81611441565b610fa8338361071a565b0361102a57600061019160008381526020019081526020016000205490504282827f45c072aa05b9853b5a993de7a28bc332ee01404a628cec1a23ce0f659f842ef133604051610ff89190614d62565b60405180910390a4808461100c9190614d7d565b93506000610191600084815260200190815260200160002081905550505b50808061103690614c79565b915050610f6d565b50600081111561108e5761108d33600060ff16836040518060400160405280600f81526020017f4d696e746564206f6e20436c61696d0000000000000000000000000000000000815250612185565b5b5050565b61109a611ac0565b73ffffffffffffffffffffffffffffffffffffffff168373ffffffffffffffffffffffffffffffffffffffff1614806110e057506110df836110da611ac0565b61149d565b5b61111f576040517f08c379a0000000000000000000000000000000000000000000000000000000008152600401611116906149b3565b60405180910390fd5b61112a838383612336565b505050565b7f241ecf16d79d0f8dbfb92cbc07fe17840425976cf0667f022fe9877caa831b086111598161187f565b61116585858585612185565b5050505050565b60008060019054906101000a900460ff1615905080801561119d5750600160008054906101000a900460ff1660ff16105b806111ca57506111ac30612606565b1580156111c95750600160008054906101000a900460ff1660ff16145b5b611209576040517f08c379a000000000000000000000000000000000000000000000000000000000815260040161120090614e23565b60405180910390fd5b60016000806101000a81548160ff021916908360ff1602179055508015611246576001600060016101000a81548160ff0219169083151502179055505b6112846040518060400160405280601881526020017f68747470733a2f2f7768796e6f747377697463682e636f6d0000000000000000815250612629565b61128c612684565b6112946126d5565b61129c612726565b6112a4612777565b6112b16000801b33611dec565b6112db7f241ecf16d79d0f8dbfb92cbc07fe17840425976cf0667f022fe9877caa831b0833611dec565b80156113345760008060016101000a81548160ff0219169083151502179055507f7f26b83ff96e1f2b6a682f133852f6798a09c465da95921460cefb3847402498600160405161132b9190614e95565b60405180910390a15b50565b600060c9600084815260200190815260200160002060000160008373ffffffffffffffffffffffffffffffffffffffff1673ffffffffffffffffffffffffffffffffffffffff16815260200190815260200160002060009054906101000a900460ff16905092915050565b6000801b81565b6113bb6113b4611ac0565b83836127c8565b5050565b7f241ecf16d79d0f8dbfb92cbc07fe17840425976cf0667f022fe9877caa831b086113e98161187f565b82610192600084815260200190815260200160002060006101000a81548173ffffffffffffffffffffffffffffffffffffffff021916908373ffffffffffffffffffffffffffffffffffffffff160217905550505050565b600060fb6000838152602001908152602001600020549050919050565b611467826108c6565b6114708161187f565b61147a8383611ecd565b505050565b60006101916000838152602001908152602001600020549050919050565b6000606660008473ffffffffffffffffffffffffffffffffffffffff1673ffffffffffffffffffffffffffffffffffffffff16815260200190815260200160002060008373ffffffffffffffffffffffffffffffffffffffff1673ffffffffffffffffffffffffffffffffffffffff16815260200190815260200160002060009054906101000a900460ff16905092915050565b7f241ecf16d79d0f8dbfb92cbc07fe17840425976cf0667f022fe9877caa831b0881565b600060ff16820361159b576040517f08c379a000000000000000000000000000000000000000000000000000000000815260040161159290614efc565b60405180910390fd5b6115aa33600060ff1683612934565b4282827fa3d75270a66982cf590dc1ba69416ea420846e5605f6951173b6cfafea9a87e2336040516115dc9190614d62565b60405180910390a460006064600f836115f59190614f1c565b6115ff9190614fa5565b9050806101936000610192600087815260200190815260200160002060009054906101000a900473ffffffffffffffffffffffffffffffffffffffff1673ffffffffffffffffffffffffffffffffffffffff1673ffffffffffffffffffffffffffffffffffffffff16815260200190815260200160002060008282546116859190614d7d565b9250508190555080826116989190614fd6565b610191600085815260200190815260200160002060008282546116bb9190614d7d565b92505081905550505050565b6116cf611ac0565b73ffffffffffffffffffffffffffffffffffffffff168573ffffffffffffffffffffffffffffffffffffffff16148061171557506117148561170f611ac0565b61149d565b5b611754576040517f08c379a000000000000000000000000000000000000000000000000000000000815260040161174b906149b3565b60405180910390fd5b6117618585858585612b7c565b5050505050565b611770611ac0565b73ffffffffffffffffffffffffffffffffffffffff168373ffffffffffffffffffffffffffffffffffffffff1614806117b657506117b5836117b0611ac0565b61149d565b5b6117f5576040517f08c379a00000000000000000000000000000000000000000000000000000000081526004016117ec906149b3565b60405180910390fd5b611800838383612934565b505050565b60007f7965db0b000000000000000000000000000000000000000000000000000000007bffffffffffffffffffffffffffffffffffffffffffffffffffffffff1916827bffffffffffffffffffffffffffffffffffffffffffffffffffffffff19161480611878575061187782612e1a565b5b9050919050565b6118908161188b611ac0565b612efc565b50565b600073ffffffffffffffffffffffffffffffffffffffff168473ffffffffffffffffffffffffffffffffffffffff1603611902576040517f08c379a00000000000000000000000000000000000000000000000000000000081526004016118f99061507c565b60405180910390fd5b8151835114611946576040517f08c379a000000000000000000000000000000000000000000000000000000000815260040161193d9061510e565b60405180910390fd5b6000611950611ac0565b905061196181600087878787612f81565b60005b8451811015611a1b578381815181106119805761197f614c1b565b5b60200260200101516065600087848151811061199f5761199e614c1b565b5b6020026020010151815260200190815260200160002060008873ffffffffffffffffffffffffffffffffffffffff1673ffffffffffffffffffffffffffffffffffffffff1681526020019081526020016000206000828254611a019190614d7d565b925050819055508080611a1390614c79565b915050611964565b508473ffffffffffffffffffffffffffffffffffffffff16600073ffffffffffffffffffffffffffffffffffffffff168273ffffffffffffffffffffffffffffffffffffffff167f4a39dc06d4c0dbc64b70af90fd698a233a518aa5d07e595d983b8c0526c8f7fb8787604051611a9392919061512e565b60405180910390a4611aaa81600087878787612f97565b611ab981600087878787612f9f565b5050505050565b600033905090565b8151835114611b0c576040517f08c379a0000000000000000000000000000000000000000000000000000000008152600401611b039061510e565b60405180910390fd5b600073ffffffffffffffffffffffffffffffffffffffff168473ffffffffffffffffffffffffffffffffffffffff1603611b7b576040517f08c379a0000000000000000000000000000000000000000000000000000000008152600401611b72906151d7565b60405180910390fd5b6000611b85611ac0565b9050611b95818787878787612f81565b60005b8451811015611d49576000858281518110611bb657611bb5614c1b565b5b602002602001015190506000858381518110611bd557611bd4614c1b565b5b6020026020010151905060006065600084815260200190815260200160002060008b73ffffffffffffffffffffffffffffffffffffffff1673ffffffffffffffffffffffffffffffffffffffff16815260200190815260200160002054905081811015611c77576040517f08c379a0000000000000000000000000000000000000000000000000000000008152600401611c6e90615269565b60405180910390fd5b8181036065600085815260200190815260200160002060008c73ffffffffffffffffffffffffffffffffffffffff1673ffffffffffffffffffffffffffffffffffffffff16815260200190815260200160002081905550816065600085815260200190815260200160002060008b73ffffffffffffffffffffffffffffffffffffffff1673ffffffffffffffffffffffffffffffffffffffff1681526020019081526020016000206000828254611d2e9190614d7d565b9250508190555050505080611d4290614c79565b9050611b98565b508473ffffffffffffffffffffffffffffffffffffffff168673ffffffffffffffffffffffffffffffffffffffff168273ffffffffffffffffffffffffffffffffffffffff167f4a39dc06d4c0dbc64b70af90fd698a233a518aa5d07e595d983b8c0526c8f7fb8787604051611dc092919061512e565b60405180910390a4611dd6818787878787612f97565b611de4818787878787612f9f565b505050505050565b611df68282611337565b611ec957600160c9600084815260200190815260200160002060000160008373ffffffffffffffffffffffffffffffffffffffff1673ffffffffffffffffffffffffffffffffffffffff16815260200190815260200160002060006101000a81548160ff021916908315150217905550611e6e611ac0565b73ffffffffffffffffffffffffffffffffffffffff168173ffffffffffffffffffffffffffffffffffffffff16837f2f8788117e7eff1d82e926ec794901d17c78024a50270940304540a733656f0d60405160405180910390a45b5050565b611ed78282611337565b15611fab57600060c9600084815260200190815260200160002060000160008373ffffffffffffffffffffffffffffffffffffffff1673ffffffffffffffffffffffffffffffffffffffff16815260200190815260200160002060006101000a81548160ff021916908315150217905550611f50611ac0565b73ffffffffffffffffffffffffffffffffffffffff168173ffffffffffffffffffffffffffffffffffffffff16837ff6391f5c32d9c69d2a47ea670b442974b53935d1edc7fd64eb21e047a839171b60405160405180910390a45b5050565b6000611fdd7f360894a13ba1a3210667c828492db98dca3e2076cc3735a920a3ca505d382bbc60001b613176565b60000160009054906101000a900473ffffffffffffffffffffffffffffffffffffffff16905090565b6000801b6120138161187f565b5050565b6120437f4910fdfa16fed3260ed0e7147f7cc6da11a60208b5b9406d12a635614ffd914360001b613180565b60000160009054906101000a900460ff1615612067576120628361318a565b612180565b8273ffffffffffffffffffffffffffffffffffffffff166352d1902d6040518163ffffffff1660e01b8152600401602060405180830381865afa9250505080156120cf57506040513d601f19601f820116820180604052508101906120cc919061529e565b60015b61210e576040517f08c379a00000000000000000000000000000000000000000000000000000000081526004016121059061533d565b60405180910390fd5b7f360894a13ba1a3210667c828492db98dca3e2076cc3735a920a3ca505d382bbc60001b8114612173576040517f08c379a000000000000000000000000000000000000000000000000000000000815260040161216a906153cf565b60405180910390fd5b5061217f838383613243565b5b505050565b600073ffffffffffffffffffffffffffffffffffffffff168473ffffffffffffffffffffffffffffffffffffffff16036121f4576040517f08c379a00000000000000000000000000000000000000000000000000000000081526004016121eb9061507c565b60405180910390fd5b60006121fe611ac0565b9050600061220b8561326f565b905060006122188561326f565b905061222983600089858589612f81565b846065600088815260200190815260200160002060008973ffffffffffffffffffffffffffffffffffffffff1673ffffffffffffffffffffffffffffffffffffffff16815260200190815260200160002060008282546122899190614d7d565b925050819055508673ffffffffffffffffffffffffffffffffffffffff16600073ffffffffffffffffffffffffffffffffffffffff168473ffffffffffffffffffffffffffffffffffffffff167fc3d58168c5ae7397731d063d5bbf3d657854427343f4c083240f7aacaa2d0f6289896040516123079291906153ef565b60405180910390a461231e83600089858589612f97565b61232d836000898989896132e9565b50505050505050565b600073ffffffffffffffffffffffffffffffffffffffff168373ffffffffffffffffffffffffffffffffffffffff16036123a5576040517f08c379a000000000000000000000000000000000000000000000000000000000815260040161239c9061548a565b60405180910390fd5b80518251146123e9576040517f08c379a00000000000000000000000000000000000000000000000000000000081526004016123e09061510e565b60405180910390fd5b60006123f3611ac0565b905061241381856000868660405180602001604052806000815250612f81565b60005b835181101561256257600084828151811061243457612433614c1b565b5b60200260200101519050600084838151811061245357612452614c1b565b5b6020026020010151905060006065600084815260200190815260200160002060008973ffffffffffffffffffffffffffffffffffffffff1673ffffffffffffffffffffffffffffffffffffffff168152602001908152602001600020549050818110156124f5576040517f08c379a00000000000000000000000000000000000000000000000000000000081526004016124ec9061551c565b60405180910390fd5b8181036065600085815260200190815260200160002060008a73ffffffffffffffffffffffffffffffffffffffff1673ffffffffffffffffffffffffffffffffffffffff16815260200190815260200160002081905550505050808061255a90614c79565b915050612416565b50600073ffffffffffffffffffffffffffffffffffffffff168473ffffffffffffffffffffffffffffffffffffffff168273ffffffffffffffffffffffffffffffffffffffff167f4a39dc06d4c0dbc64b70af90fd698a233a518aa5d07e595d983b8c0526c8f7fb86866040516125da92919061512e565b60405180910390a461260081856000868660405180602001604052806000815250612f97565b50505050565b6000808273ffffffffffffffffffffffffffffffffffffffff163b119050919050565b600060019054906101000a900460ff16612678576040517f08c379a000000000000000000000000000000000000000000000000000000000815260040161266f906155ae565b60405180910390fd5b612681816134c0565b50565b600060019054906101000a900460ff166126d3576040517f08c379a00000000000000000000000000000000000000000000000000000000081526004016126ca906155ae565b60405180910390fd5b565b600060019054906101000a900460ff16612724576040517f08c379a000000000000000000000000000000000000000000000000000000000815260040161271b906155ae565b60405180910390fd5b565b600060019054906101000a900460ff16612775576040517f08c379a000000000000000000000000000000000000000000000000000000000815260040161276c906155ae565b60405180910390fd5b565b600060019054906101000a900460ff166127c6576040517f08c379a00000000000000000000000000000000000000000000000000000000081526004016127bd906155ae565b60405180910390fd5b565b8173ffffffffffffffffffffffffffffffffffffffff168373ffffffffffffffffffffffffffffffffffffffff1603612836576040517f08c379a000000000000000000000000000000000000000000000000000000000815260040161282d90615640565b60405180910390fd5b80606660008573ffffffffffffffffffffffffffffffffffffffff1673ffffffffffffffffffffffffffffffffffffffff16815260200190815260200160002060008473ffffffffffffffffffffffffffffffffffffffff1673ffffffffffffffffffffffffffffffffffffffff16815260200190815260200160002060006101000a81548160ff0219169083151502179055508173ffffffffffffffffffffffffffffffffffffffff168373ffffffffffffffffffffffffffffffffffffffff167f17307eab39ab6107e8899845ad3d59bd9653f200f220920489ca2b5937696c31836040516129279190613d30565b60405180910390a3505050565b600073ffffffffffffffffffffffffffffffffffffffff168373ffffffffffffffffffffffffffffffffffffffff16036129a3576040517f08c379a000000000000000000000000000000000000000000000000000000000815260040161299a9061548a565b60405180910390fd5b60006129ad611ac0565b905060006129ba8461326f565b905060006129c78461326f565b90506129e783876000858560405180602001604052806000815250612f81565b60006065600087815260200190815260200160002060008873ffffffffffffffffffffffffffffffffffffffff1673ffffffffffffffffffffffffffffffffffffffff16815260200190815260200160002054905084811015612a7f576040517f08c379a0000000000000000000000000000000000000000000000000000000008152600401612a769061551c565b60405180910390fd5b8481036065600088815260200190815260200160002060008973ffffffffffffffffffffffffffffffffffffffff1673ffffffffffffffffffffffffffffffffffffffff16815260200190815260200160002081905550600073ffffffffffffffffffffffffffffffffffffffff168773ffffffffffffffffffffffffffffffffffffffff168573ffffffffffffffffffffffffffffffffffffffff167fc3d58168c5ae7397731d063d5bbf3d657854427343f4c083240f7aacaa2d0f628989604051612b4d9291906153ef565b60405180910390a4612b7384886000868660405180602001604052806000815250612f97565b50505050505050565b600073ffffffffffffffffffffffffffffffffffffffff168473ffffffffffffffffffffffffffffffffffffffff1603612beb576040517f08c379a0000000000000000000000000000000000000000000000000000000008152600401612be2906151d7565b60405180910390fd5b6000612bf5611ac0565b90506000612c028561326f565b90506000612c0f8561326f565b9050612c1f838989858589612f81565b60006065600088815260200190815260200160002060008a73ffffffffffffffffffffffffffffffffffffffff1673ffffffffffffffffffffffffffffffffffffffff16815260200190815260200160002054905085811015612cb7576040517f08c379a0000000000000000000000000000000000000000000000000000000008152600401612cae90615269565b60405180910390fd5b8581036065600089815260200190815260200160002060008b73ffffffffffffffffffffffffffffffffffffffff1673ffffffffffffffffffffffffffffffffffffffff16815260200190815260200160002081905550856065600089815260200190815260200160002060008a73ffffffffffffffffffffffffffffffffffffffff1673ffffffffffffffffffffffffffffffffffffffff1681526020019081526020016000206000828254612d6e9190614d7d565b925050819055508773ffffffffffffffffffffffffffffffffffffffff168973ffffffffffffffffffffffffffffffffffffffff168573ffffffffffffffffffffffffffffffffffffffff167fc3d58168c5ae7397731d063d5bbf3d657854427343f4c083240f7aacaa2d0f628a8a604051612deb9291906153ef565b60405180910390a4612e01848a8a86868a612f97565b612e0f848a8a8a8a8a6132e9565b505050505050505050565b60007fd9b67a26000000000000000000000000000000000000000000000000000000007bffffffffffffffffffffffffffffffffffffffffffffffffffffffff1916827bffffffffffffffffffffffffffffffffffffffffffffffffffffffff19161480612ee557507f0e89341c000000000000000000000000000000000000000000000000000000007bffffffffffffffffffffffffffffffffffffffffffffffffffffffff1916827bffffffffffffffffffffffffffffffffffffffffffffffffffffffff1916145b80612ef55750612ef48261351b565b5b9050919050565b612f068282611337565b612f7d57612f1381613585565b612f218360001c60206135b2565b604051602001612f32929190615734565b6040516020818303038152906040526040517f08c379a0000000000000000000000000000000000000000000000000000000008152600401612f749190613e08565b60405180910390fd5b5050565b612f8f8686868686866137ee565b505050505050565b505050505050565b612fbe8473ffffffffffffffffffffffffffffffffffffffff16612606565b1561316e578373ffffffffffffffffffffffffffffffffffffffff1663bc197c8187878686866040518663ffffffff1660e01b81526004016130049594939291906157c3565b6020604051808303816000875af192505050801561304057506040513d601f19601f8201168201806040525081019061303d9190615840565b60015b6130e55761304c61587a565b806308c379a0036130a8575061306061589c565b8061306b57506130aa565b806040517f08c379a000000000000000000000000000000000000000000000000000000000815260040161309f9190613e08565b60405180910390fd5b505b6040517f08c379a00000000000000000000000000000000000000000000000000000000081526004016130dc9061599e565b60405180910390fd5b63bc197c8160e01b7bffffffffffffffffffffffffffffffffffffffffffffffffffffffff1916817bffffffffffffffffffffffffffffffffffffffffffffffffffffffff19161461316c576040517f08c379a000000000000000000000000000000000000000000000000000000000815260040161316390615a30565b60405180910390fd5b505b505050505050565b6000819050919050565b6000819050919050565b61319381612606565b6131d2576040517f08c379a00000000000000000000000000000000000000000000000000000000081526004016131c990615ac2565b60405180910390fd5b806131ff7f360894a13ba1a3210667c828492db98dca3e2076cc3735a920a3ca505d382bbc60001b613176565b60000160006101000a81548173ffffffffffffffffffffffffffffffffffffffff021916908373ffffffffffffffffffffffffffffffffffffffff16021790555050565b61324c836139be565b6000825111806132595750805b1561326a576132688383613a0d565b505b505050565b60606000600167ffffffffffffffff81111561328e5761328d613e2f565b5b6040519080825280602002602001820160405280156132bc5781602001602082028036833780820191505090505b50905082816000815181106132d4576132d3614c1b565b5b60200260200101818152505080915050919050565b6133088473ffffffffffffffffffffffffffffffffffffffff16612606565b156134b8578373ffffffffffffffffffffffffffffffffffffffff1663f23a6e6187878686866040518663ffffffff1660e01b815260040161334e959493929190615ae2565b6020604051808303816000875af192505050801561338a57506040513d601f19601f820116820180604052508101906133879190615840565b60015b61342f5761339661587a565b806308c379a0036133f257506133aa61589c565b806133b557506133f4565b806040517f08c379a00000000000000000000000000000000000000000000000000000000081526004016133e99190613e08565b60405180910390fd5b505b6040517f08c379a00000000000000000000000000000000000000000000000000000000081526004016134269061599e565b60405180910390fd5b63f23a6e6160e01b7bffffffffffffffffffffffffffffffffffffffffffffffffffffffff1916817bffffffffffffffffffffffffffffffffffffffffffffffffffffffff1916146134b6576040517f08c379a00000000000000000000000000000000000000000000000000000000081526004016134ad90615a30565b60405180910390fd5b505b505050505050565b600060019054906101000a900460ff1661350f576040517f08c379a0000000000000000000000000000000000000000000000000000000008152600401613506906155ae565b60405180910390fd5b61351881613af1565b50565b60007f01ffc9a7000000000000000000000000000000000000000000000000000000007bffffffffffffffffffffffffffffffffffffffffffffffffffffffff1916827bffffffffffffffffffffffffffffffffffffffffffffffffffffffff1916149050919050565b60606135ab8273ffffffffffffffffffffffffffffffffffffffff16601460ff166135b2565b9050919050565b6060600060028360026135c59190614f1c565b6135cf9190614d7d565b67ffffffffffffffff8111156135e8576135e7613e2f565b5b6040519080825280601f01601f19166020018201604052801561361a5781602001600182028036833780820191505090505b5090507f30000000000000000000000000000000000000000000000000000000000000008160008151811061365257613651614c1b565b5b60200101907effffffffffffffffffffffffffffffffffffffffffffffffffffffffffffff1916908160001a9053507f7800000000000000000000000000000000000000000000000000000000000000816001815181106136b6576136b5614c1b565b5b60200101907effffffffffffffffffffffffffffffffffffffffffffffffffffffffffffff1916908160001a905350600060018460026136f69190614f1c565b6137009190614d7d565b90505b60018111156137a0577f3031323334353637383961626364656600000000000000000000000000000000600f86166010811061374257613741614c1b565b5b1a60f81b82828151811061375957613758614c1b565b5b60200101907effffffffffffffffffffffffffffffffffffffffffffffffffffffffffffff1916908160001a905350600485901c94508061379990615b3c565b9050613703565b50600084146137e4576040517f08c379a00000000000000000000000000000000000000000000000000000000081526004016137db90615bb1565b60405180910390fd5b8091505092915050565b6137fc868686868686613b04565b600073ffffffffffffffffffffffffffffffffffffffff168573ffffffffffffffffffffffffffffffffffffffff16036138ad5760005b83518110156138ab5782818151811061384f5761384e614c1b565b5b602002602001015160fb600086848151811061386e5761386d614c1b565b5b6020026020010151815260200190815260200160002060008282546138939190614d7d565b92505081905550806138a490614c79565b9050613833565b505b600073ffffffffffffffffffffffffffffffffffffffff168473ffffffffffffffffffffffffffffffffffffffff16036139b65760005b83518110156139b457600084828151811061390257613901614c1b565b5b60200260200101519050600084838151811061392157613920614c1b565b5b60200260200101519050600060fb600084815260200190815260200160002054905081811015613986576040517f08c379a000000000000000000000000000000000000000000000000000000000815260040161397d90615c43565b60405180910390fd5b81810360fb600085815260200190815260200160002081905550505050806139ad90614c79565b90506138e4565b505b505050505050565b6139c78161318a565b8073ffffffffffffffffffffffffffffffffffffffff167fbc7cd75a20ee27fd9adebab32041f755214dbc6bffa90cc0225b39da2e5c2d3b60405160405180910390a250565b6060613a1883612606565b613a57576040517f08c379a0000000000000000000000000000000000000000000000000000000008152600401613a4e90615cd5565b60405180910390fd5b6000808473ffffffffffffffffffffffffffffffffffffffff1684604051613a7f9190615d31565b600060405180830381855af49150503d8060008114613aba576040519150601f19603f3d011682016040523d82523d6000602084013e613abf565b606091505b5091509150613ae78282604051806060016040528060278152602001615fbd60279139613b0c565b9250505092915050565b8060679081613b009190615eea565b5050565b505050505050565b60608315613b1c57829050613b27565b613b268383613b2e565b5b9392505050565b600082511115613b415781518083602001fd5b806040517f08c379a0000000000000000000000000000000000000000000000000000000008152600401613b759190613e08565b60405180910390fd5b6000604051905090565b600080fd5b600080fd5b600073ffffffffffffffffffffffffffffffffffffffff82169050919050565b6000613bbd82613b92565b9050919050565b613bcd81613bb2565b8114613bd857600080fd5b50565b600081359050613bea81613bc4565b92915050565b6000819050919050565b613c0381613bf0565b8114613c0e57600080fd5b50565b600081359050613c2081613bfa565b92915050565b60008060408385031215613c3d57613c3c613b88565b5b6000613c4b85828601613bdb565b9250506020613c5c85828601613c11565b9150509250929050565b613c6f81613bf0565b82525050565b6000602082019050613c8a6000830184613c66565b92915050565b60007fffffffff0000000000000000000000000000000000000000000000000000000082169050919050565b613cc581613c90565b8114613cd057600080fd5b50565b600081359050613ce281613cbc565b92915050565b600060208284031215613cfe57613cfd613b88565b5b6000613d0c84828501613cd3565b91505092915050565b60008115159050919050565b613d2a81613d15565b82525050565b6000602082019050613d456000830184613d21565b92915050565b600060208284031215613d6157613d60613b88565b5b6000613d6f84828501613c11565b91505092915050565b600081519050919050565b600082825260208201905092915050565b60005b83811015613db2578082015181840152602081019050613d97565b60008484015250505050565b6000601f19601f8301169050919050565b6000613dda82613d78565b613de48185613d83565b9350613df4818560208601613d94565b613dfd81613dbe565b840191505092915050565b60006020820190508181036000830152613e228184613dcf565b905092915050565b600080fd5b7f4e487b7100000000000000000000000000000000000000000000000000000000600052604160045260246000fd5b613e6782613dbe565b810181811067ffffffffffffffff82111715613e8657613e85613e2f565b5b80604052505050565b6000613e99613b7e565b9050613ea58282613e5e565b919050565b600067ffffffffffffffff821115613ec557613ec4613e2f565b5b602082029050602081019050919050565b600080fd5b6000613eee613ee984613eaa565b613e8f565b90508083825260208201905060208402830185811115613f1157613f10613ed6565b5b835b81811015613f3a5780613f268882613c11565b845260208401935050602081019050613f13565b5050509392505050565b600082601f830112613f5957613f58613e2a565b5b8135613f69848260208601613edb565b91505092915050565b600080fd5b600067ffffffffffffffff821115613f9257613f91613e2f565b5b613f9b82613dbe565b9050602081019050919050565b82818337600083830152505050565b6000613fca613fc584613f77565b613e8f565b905082815260208101848484011115613fe657613fe5613f72565b5b613ff1848285613fa8565b509392505050565b600082601f83011261400e5761400d613e2a565b5b813561401e848260208601613fb7565b91505092915050565b6000806000806080858703121561404157614040613b88565b5b600061404f87828801613bdb565b945050602085013567ffffffffffffffff8111156140705761406f613b8d565b5b61407c87828801613f44565b935050604085013567ffffffffffffffff81111561409d5761409c613b8d565b5b6140a987828801613f44565b925050606085013567ffffffffffffffff8111156140ca576140c9613b8d565b5b6140d687828801613ff9565b91505092959194509250565b6000819050919050565b6140f5816140e2565b811461410057600080fd5b50565b600081359050614112816140ec565b92915050565b60006020828403121561412e5761412d613b88565b5b600061413c84828501614103565b91505092915050565b61414e816140e2565b82525050565b60006020820190506141696000830184614145565b92915050565b600080600080600060a0868803121561418b5761418a613b88565b5b600061419988828901613bdb565b95505060206141aa88828901613bdb565b945050604086013567ffffffffffffffff8111156141cb576141ca613b8d565b5b6141d788828901613f44565b935050606086013567ffffffffffffffff8111156141f8576141f7613b8d565b5b61420488828901613f44565b925050608086013567ffffffffffffffff81111561422557614224613b8d565b5b61423188828901613ff9565b9150509295509295909350565b6000806040838503121561425557614254613b88565b5b600061426385828601614103565b925050602061427485828601613bdb565b9150509250929050565b60006020828403121561429457614293613b88565b5b60006142a284828501613bdb565b91505092915050565b600067ffffffffffffffff8211156142c6576142c5613e2f565b5b602082029050602081019050919050565b60006142ea6142e5846142ab565b613e8f565b9050808382526020820190506020840283018581111561430d5761430c613ed6565b5b835b8181101561433657806143228882613bdb565b84526020840193505060208101905061430f565b5050509392505050565b600082601f83011261435557614354613e2a565b5b81356143658482602086016142d7565b91505092915050565b6000806040838503121561438557614384613b88565b5b600083013567ffffffffffffffff8111156143a3576143a2613b8d565b5b6143af85828601614340565b925050602083013567ffffffffffffffff8111156143d0576143cf613b8d565b5b6143dc85828601613f44565b9150509250929050565b600081519050919050565b600082825260208201905092915050565b6000819050602082019050919050565b61441b81613bf0565b82525050565b600061442d8383614412565b60208301905092915050565b6000602082019050919050565b6000614451826143e6565b61445b81856143f1565b935061446683614402565b8060005b8381101561449757815161447e8882614421565b975061448983614439565b92505060018101905061446a565b5085935050505092915050565b600060208201905081810360008301526144be8184614446565b905092915050565b600080604083850312156144dd576144dc613b88565b5b60006144eb85828601613bdb565b925050602083013567ffffffffffffffff81111561450c5761450b613b8d565b5b61451885828601613ff9565b9150509250929050565b60006020828403121561453857614537613b88565b5b600082013567ffffffffffffffff81111561455657614555613b8d565b5b61456284828501613f44565b91505092915050565b60008060006060848603121561458457614583613b88565b5b600061459286828701613bdb565b935050602084013567ffffffffffffffff8111156145b3576145b2613b8d565b5b6145bf86828701613f44565b925050604084013567ffffffffffffffff8111156145e0576145df613b8d565b5b6145ec86828701613f44565b9150509250925092565b600080600080608085870312156146105761460f613b88565b5b600061461e87828801613bdb565b945050602061462f87828801613c11565b935050604061464087828801613c11565b925050606085013567ffffffffffffffff81111561466157614660613b8d565b5b61466d87828801613ff9565b91505092959194509250565b61468281613d15565b811461468d57600080fd5b50565b60008135905061469f81614679565b92915050565b600080604083850312156146bc576146bb613b88565b5b60006146ca85828601613bdb565b92505060206146db85828601614690565b9150509250929050565b600080604083850312156146fc576146fb613b88565b5b600061470a85828601613bdb565b925050602061471b85828601613bdb565b9150509250929050565b6000806040838503121561473c5761473b613b88565b5b600061474a85828601613c11565b925050602061475b85828601613c11565b9150509250929050565b600080600080600060a0868803121561478157614780613b88565b5b600061478f88828901613bdb565b95505060206147a088828901613bdb565b94505060406147b188828901613c11565b93505060606147c288828901613c11565b925050608086013567ffffffffffffffff8111156147e3576147e2613b8d565b5b6147ef88828901613ff9565b9150509295509295909350565b60008060006060848603121561481557614814613b88565b5b600061482386828701613bdb565b935050602061483486828701613c11565b925050604061484586828701613c11565b9150509250925092565b7f455243313135353a2061646472657373207a65726f206973206e6f742061207660008201527f616c6964206f776e657200000000000000000000000000000000000000000000602082015250565b60006148ab602a83613d83565b91506148b68261484f565b604082019050919050565b600060208201905081810360008301526148da8161489e565b9050919050565b7f4e487b7100000000000000000000000000000000000000000000000000000000600052602260045260246000fd5b6000600282049050600182168061492857607f821691505b60208210810361493b5761493a6148e1565b5b50919050565b7f455243313135353a2063616c6c6572206973206e6f7420746f6b656e206f776e60008201527f6572206f7220617070726f766564000000000000000000000000000000000000602082015250565b600061499d602e83613d83565b91506149a882614941565b604082019050919050565b600060208201905081810360008301526149cc81614990565b9050919050565b7f416363657373436f6e74726f6c3a2063616e206f6e6c792072656e6f756e636560008201527f20726f6c657320666f722073656c660000000000000000000000000000000000602082015250565b6000614a2f602f83613d83565b9150614a3a826149d3565b604082019050919050565b60006020820190508181036000830152614a5e81614a22565b9050919050565b7f46756e6374696f6e206d7573742062652063616c6c6564207468726f7567682060008201527f64656c656761746563616c6c0000000000000000000000000000000000000000602082015250565b6000614ac1602c83613d83565b9150614acc82614a65565b604082019050919050565b60006020820190508181036000830152614af081614ab4565b9050919050565b7f46756e6374696f6e206d7573742062652063616c6c6564207468726f7567682060008201527f6163746976652070726f78790000000000000000000000000000000000000000602082015250565b6000614b53602c83613d83565b9150614b5e82614af7565b604082019050919050565b60006020820190508181036000830152614b8281614b46565b9050919050565b7f455243313135353a206163636f756e747320616e6420696473206c656e67746860008201527f206d69736d617463680000000000000000000000000000000000000000000000602082015250565b6000614be5602983613d83565b9150614bf082614b89565b604082019050919050565b60006020820190508181036000830152614c1481614bd8565b9050919050565b7f4e487b7100000000000000000000000000000000000000000000000000000000600052603260045260246000fd5b7f4e487b7100000000000000000000000000000000000000000000000000000000600052601160045260246000fd5b6000614c8482613bf0565b91507fffffffffffffffffffffffffffffffffffffffffffffffffffffffffffffffff8203614cb657614cb5614c4a565b5b600182019050919050565b7f555550535570677261646561626c653a206d757374206e6f742062652063616c60008201527f6c6564207468726f7567682064656c656761746563616c6c0000000000000000602082015250565b6000614d1d603883613d83565b9150614d2882614cc1565b604082019050919050565b60006020820190508181036000830152614d4c81614d10565b9050919050565b614d5c81613bb2565b82525050565b6000602082019050614d776000830184614d53565b92915050565b6000614d8882613bf0565b9150614d9383613bf0565b9250828201905080821115614dab57614daa614c4a565b5b92915050565b7f496e697469616c697a61626c653a20636f6e747261637420697320616c72656160008201527f647920696e697469616c697a6564000000000000000000000000000000000000602082015250565b6000614e0d602e83613d83565b9150614e1882614db1565b604082019050919050565b60006020820190508181036000830152614e3c81614e00565b9050919050565b6000819050919050565b600060ff82169050919050565b6000819050919050565b6000614e7f614e7a614e7584614e43565b614e5a565b614e4d565b9050919050565b614e8f81614e64565b82525050565b6000602082019050614eaa6000830184614e86565b92915050565b7f574e533a20696e76616c696420746f6b656e2049440000000000000000000000600082015250565b6000614ee6601583613d83565b9150614ef182614eb0565b602082019050919050565b60006020820190508181036000830152614f1581614ed9565b9050919050565b6000614f2782613bf0565b9150614f3283613bf0565b9250817fffffffffffffffffffffffffffffffffffffffffffffffffffffffffffffffff0483118215151615614f6b57614f6a614c4a565b5b828202905092915050565b7f4e487b7100000000000000000000000000000000000000000000000000000000600052601260045260246000fd5b6000614fb082613bf0565b9150614fbb83613bf0565b925082614fcb57614fca614f76565b5b828204905092915050565b6000614fe182613bf0565b9150614fec83613bf0565b925082820390508181111561500457615003614c4a565b5b92915050565b7f455243313135353a206d696e7420746f20746865207a65726f2061646472657360008201527f7300000000000000000000000000000000000000000000000000000000000000602082015250565b6000615066602183613d83565b91506150718261500a565b604082019050919050565b6000602082019050818103600083015261509581615059565b9050919050565b7f455243313135353a2069647320616e6420616d6f756e7473206c656e6774682060008201527f6d69736d61746368000000000000000000000000000000000000000000000000602082015250565b60006150f8602883613d83565b91506151038261509c565b604082019050919050565b60006020820190508181036000830152615127816150eb565b9050919050565b600060408201905081810360008301526151488185614446565b9050818103602083015261515c8184614446565b90509392505050565b7f455243313135353a207472616e7366657220746f20746865207a65726f20616460008201527f6472657373000000000000000000000000000000000000000000000000000000602082015250565b60006151c1602583613d83565b91506151cc82615165565b604082019050919050565b600060208201905081810360008301526151f0816151b4565b9050919050565b7f455243313135353a20696e73756666696369656e742062616c616e636520666f60008201527f72207472616e7366657200000000000000000000000000000000000000000000602082015250565b6000615253602a83613d83565b915061525e826151f7565b604082019050919050565b6000602082019050818103600083015261528281615246565b9050919050565b600081519050615298816140ec565b92915050565b6000602082840312156152b4576152b3613b88565b5b60006152c284828501615289565b91505092915050565b7f45524331393637557067726164653a206e657720696d706c656d656e7461746960008201527f6f6e206973206e6f742055555053000000000000000000000000000000000000602082015250565b6000615327602e83613d83565b9150615332826152cb565b604082019050919050565b600060208201905081810360008301526153568161531a565b9050919050565b7f45524331393637557067726164653a20756e737570706f727465642070726f7860008201527f6961626c65555549440000000000000000000000000000000000000000000000602082015250565b60006153b9602983613d83565b91506153c48261535d565b604082019050919050565b600060208201905081810360008301526153e8816153ac565b9050919050565b60006040820190506154046000830185613c66565b6154116020830184613c66565b9392505050565b7f455243313135353a206275726e2066726f6d20746865207a65726f206164647260008201527f6573730000000000000000000000000000000000000000000000000000000000602082015250565b6000615474602383613d83565b915061547f82615418565b604082019050919050565b600060208201905081810360008301526154a381615467565b9050919050565b7f455243313135353a206275726e20616d6f756e7420657863656564732062616c60008201527f616e636500000000000000000000000000000000000000000000000000000000602082015250565b6000615506602483613d83565b9150615511826154aa565b604082019050919050565b60006020820190508181036000830152615535816154f9565b9050919050565b7f496e697469616c697a61626c653a20636f6e7472616374206973206e6f74206960008201527f6e697469616c697a696e67000000000000000000000000000000000000000000602082015250565b6000615598602b83613d83565b91506155a38261553c565b604082019050919050565b600060208201905081810360008301526155c78161558b565b9050919050565b7f455243313135353a2073657474696e6720617070726f76616c2073746174757360008201527f20666f722073656c660000000000000000000000000000000000000000000000602082015250565b600061562a602983613d83565b9150615635826155ce565b604082019050919050565b600060208201905081810360008301526156598161561d565b9050919050565b600081905092915050565b7f416363657373436f6e74726f6c3a206163636f756e7420000000000000000000600082015250565b60006156a1601783615660565b91506156ac8261566b565b601782019050919050565b60006156c282613d78565b6156cc8185615660565b93506156dc818560208601613d94565b80840191505092915050565b7f206973206d697373696e6720726f6c6520000000000000000000000000000000600082015250565b600061571e601183615660565b9150615729826156e8565b601182019050919050565b600061573f82615694565b915061574b82856156b7565b915061575682615711565b915061576282846156b7565b91508190509392505050565b600081519050919050565b600082825260208201905092915050565b60006157958261576e565b61579f8185615779565b93506157af818560208601613d94565b6157b881613dbe565b840191505092915050565b600060a0820190506157d86000830188614d53565b6157e56020830187614d53565b81810360408301526157f78186614446565b9050818103606083015261580b8185614446565b9050818103608083015261581f818461578a565b90509695505050505050565b60008151905061583a81613cbc565b92915050565b60006020828403121561585657615855613b88565b5b60006158648482850161582b565b91505092915050565b60008160e01c9050919050565b600060033d11156158995760046000803e61589660005161586d565b90505b90565b600060443d10615929576158ae613b7e565b60043d036004823e80513d602482011167ffffffffffffffff821117156158d6575050615929565b808201805167ffffffffffffffff8111156158f45750505050615929565b80602083010160043d038501811115615911575050505050615929565b61592082602001850186613e5e565b82955050505050505b90565b7f455243313135353a207472616e7366657220746f206e6f6e2d4552433131353560008201527f526563656976657220696d706c656d656e746572000000000000000000000000602082015250565b6000615988603483613d83565b91506159938261592c565b604082019050919050565b600060208201905081810360008301526159b78161597b565b9050919050565b7f455243313135353a204552433131353552656365697665722072656a6563746560008201527f6420746f6b656e73000000000000000000000000000000000000000000000000602082015250565b6000615a1a602883613d83565b9150615a25826159be565b604082019050919050565b60006020820190508181036000830152615a4981615a0d565b9050919050565b7f455243313936373a206e657720696d706c656d656e746174696f6e206973206e60008201527f6f74206120636f6e747261637400000000000000000000000000000000000000602082015250565b6000615aac602d83613d83565b9150615ab782615a50565b604082019050919050565b60006020820190508181036000830152615adb81615a9f565b9050919050565b600060a082019050615af76000830188614d53565b615b046020830187614d53565b615b116040830186613c66565b615b1e6060830185613c66565b8181036080830152615b30818461578a565b90509695505050505050565b6000615b4782613bf0565b915060008203615b5a57615b59614c4a565b5b600182039050919050565b7f537472696e67733a20686578206c656e67746820696e73756666696369656e74600082015250565b6000615b9b602083613d83565b9150615ba682615b65565b602082019050919050565b60006020820190508181036000830152615bca81615b8e565b9050919050565b7f455243313135353a206275726e20616d6f756e74206578636565647320746f7460008201527f616c537570706c79000000000000000000000000000000000000000000000000602082015250565b6000615c2d602883613d83565b9150615c3882615bd1565b604082019050919050565b60006020820190508181036000830152615c5c81615c20565b9050919050565b7f416464726573733a2064656c65676174652063616c6c20746f206e6f6e2d636f60008201527f6e74726163740000000000000000000000000000000000000000000000000000602082015250565b6000615cbf602683613d83565b9150615cca82615c63565b604082019050919050565b60006020820190508181036000830152615cee81615cb2565b9050919050565b600081905092915050565b6000615d0b8261576e565b615d158185615cf5565b9350615d25818560208601613d94565b80840191505092915050565b6000615d3d8284615d00565b915081905092915050565b60008190508160005260206000209050919050565b60006020601f8301049050919050565b600082821b905092915050565b600060088302615daa7fffffffffffffffffffffffffffffffffffffffffffffffffffffffffffffffff82615d6d565b615db48683615d6d565b95508019841693508086168417925050509392505050565b6000615de7615de2615ddd84613bf0565b614e5a565b613bf0565b9050919050565b6000819050919050565b615e0183615dcc565b615e15615e0d82615dee565b848454615d7a565b825550505050565b600090565b615e2a615e1d565b615e35818484615df8565b505050565b5b81811015615e5957615e4e600082615e22565b600181019050615e3b565b5050565b601f821115615e9e57615e6f81615d48565b615e7884615d5d565b81016020851015615e87578190505b615e9b615e9385615d5d565b830182615e3a565b50505b505050565b600082821c905092915050565b6000615ec160001984600802615ea3565b1980831691505092915050565b6000615eda8383615eb0565b9150826002028217905092915050565b615ef382613d78565b67ffffffffffffffff811115615f0c57615f0b613e2f565b5b615f168254614910565b615f21828285615e5d565b600060209050601f831160018114615f545760008415615f42578287015190505b615f4c8582615ece565b865550615fb4565b601f198416615f6286615d48565b60005b82811015615f8a57848901518255600182019150602085019450602081019050615f65565b86831015615fa75784890151615fa3601f891682615eb0565b8355505b6001600288020188555050505b50505050505056fe416464726573733a206c6f772d6c6576656c2064656c65676174652063616c6c206661696c6564a2646970667358221220e75c4d2600849fef14551ecf8bd94847c78c6af95eb64823ac314c651db8c35764736f6c63430008100033",
  "immutableReferences": {
    "997": [
      {
        "length": 32,
        "start": 2605
      },
      {
        "length": 32,
        "start": 2747
      },
      {
        "length": 32,
        "start": 3278
      },
      {
        "length": 32,
        "start": 3420
      },
      {
        "length": 32,
        "start": 3616
      }
    ]
  },
  "source": "// SPDX-License-Identifier: MIT\npragma solidity ^0.8.4;\n\nimport \"@openzeppelin/contracts-upgradeable/token/ERC1155/ERC1155Upgradeable.sol\";\nimport \"@openzeppelin/contracts-upgradeable/token/ERC1155/extensions/ERC1155BurnableUpgradeable.sol\";\nimport \"@openzeppelin/contracts-upgradeable/access/AccessControlUpgradeable.sol\";\nimport \"@openzeppelin/contracts-upgradeable/token/ERC1155/extensions/ERC1155SupplyUpgradeable.sol\";\nimport \"@openzeppelin/contracts-upgradeable/proxy/utils/Initializable.sol\";\nimport \"@openzeppelin/contracts-upgradeable/proxy/utils/UUPSUpgradeable.sol\";\n\nimport \"./IWNS.sol\";\n\nuint8 constant currency = 0;\n\ncontract WNS is\n    iWNS,\n    Initializable,\n    ERC1155Upgradeable,\n    ERC1155BurnableUpgradeable,\n    AccessControlUpgradeable,\n    ERC1155SupplyUpgradeable,\n    UUPSUpgradeable\n{\n    // map id -> metadata\n    mapping(uint256 => uint256) private _revenue;\n    mapping(uint256 => address) private _developer;\n    mapping(address => uint256) private _fee;\n\n    bytes32 public constant MANAGER_ROLE = keccak256(\"MANAGER_ROLE\");\n\n    /// @custom:oz-upgrades-unsafe-allow constructor\n    constructor() {\n        _disableInitializers();\n    }\n\n    function setDeveloper(address to, uint256 id) external onlyRole(MANAGER_ROLE) {\n        _developer[id] = to;\n    }\n\n    function pay(uint256 id, uint256 amount) external {\n        require(id != currency, \"WNS: invalid token ID\");\n\n        _burn(msg.sender, currency, amount);\n        emit Revenue(msg.sender, amount, id, block.timestamp);\n\n        uint256 fee = (amount * 15) / 100;\n        _fee[_developer[id]] += fee;\n        _revenue[id] += amount - fee;\n    }\n\n    function revenueOf(uint256 id) external view returns (uint256) {\n        return _revenue[id];\n    }\n\n    function claimFunds(uint256[] memory ids) external {\n        uint256 _claim = _fee[msg.sender];\n        if (_claim > 0) {\n            _fee[msg.sender] = 0;\n        }\n\n        for (uint256 x = 0; x < ids.length; x++) {\n            uint256 _id = ids[x];\n            if (balanceOf(msg.sender, _id) == totalSupply(_id)) {\n                uint256 tokens = _revenue[_id];\n                emit Claim(msg.sender, tokens, _id, block.timestamp);\n\n                _claim += tokens;\n                _revenue[_id] = 0;\n            }\n        }\n\n        if (_claim > 0) {\n            _mint(msg.sender, currency, _claim, bytes(\"Minted on Claim\"));\n        }\n    }\n\n    function initialize() public initializer {\n        __ERC1155_init(\"https://whynotswitch.com\");\n        __ERC1155Burnable_init();\n        __AccessControl_init();\n        __ERC1155Supply_init();\n        __UUPSUpgradeable_init();\n\n        _grantRole(DEFAULT_ADMIN_ROLE, msg.sender);\n        _grantRole(MANAGER_ROLE, msg.sender);\n    }\n\n    function mint(\n        address account,\n        uint256 id,\n        uint256 amount,\n        bytes memory data\n    ) public onlyRole(MANAGER_ROLE) {\n        _mint(account, id, amount, data);\n    }\n\n    function mintBatch(\n        address to,\n        uint256[] memory ids,\n        uint256[] memory amounts,\n        bytes memory data\n    ) public onlyRole(MANAGER_ROLE) {\n        _mintBatch(to, ids, amounts, data);\n    }\n\n    function _authorizeUpgrade(address newImplementation)\n        internal\n        override\n        onlyRole(DEFAULT_ADMIN_ROLE)\n    {}\n\n    // The following functions are overrides required by Solidity.\n\n    function _beforeTokenTransfer(\n        address operator,\n        address from,\n        address to,\n        uint256[] memory ids,\n        uint256[] memory amounts,\n        bytes memory data\n    ) internal override(ERC1155Upgradeable, ERC1155SupplyUpgradeable) {\n        super._beforeTokenTransfer(operator, from, to, ids, amounts, data);\n    }\n\n    function supportsInterface(bytes4 interfaceId)\n        public\n        view\n        override(ERC1155Upgradeable, AccessControlUpgradeable)\n        returns (bool)\n    {\n        return super.supportsInterface(interfaceId);\n    }\n}\n",
  "sourcePath": "/home/ichristwin/Dev/WNS/contracts/WNS.sol",
  "compiler": {
    "name": "solc",
    "version": "0.8.16+commit.07a7930e.Emscripten.clang"
  },
  "schemaVersion": "3.4.9",
  "updatedAt": "2022-11-02T11:41:20.177Z",
  "devdoc": {
    "kind": "dev",
    "methods": {
      "balanceOf(address,uint256)": {
        "details": "See {IERC1155-balanceOf}. Requirements: - `account` cannot be the zero address."
      },
      "balanceOfBatch(address[],uint256[])": {
        "details": "See {IERC1155-balanceOfBatch}. Requirements: - `accounts` and `ids` must have the same length."
      },
      "constructor": {
        "custom:oz-upgrades-unsafe-allow": "constructor"
      },
      "exists(uint256)": {
        "details": "Indicates whether any token exist with a given id, or not."
      },
      "getRoleAdmin(bytes32)": {
        "details": "Returns the admin role that controls `role`. See {grantRole} and {revokeRole}. To change a role's admin, use {_setRoleAdmin}."
      },
      "grantRole(bytes32,address)": {
        "details": "Grants `role` to `account`. If `account` had not been already granted `role`, emits a {RoleGranted} event. Requirements: - the caller must have ``role``'s admin role. May emit a {RoleGranted} event."
      },
      "hasRole(bytes32,address)": {
        "details": "Returns `true` if `account` has been granted `role`."
      },
      "isApprovedForAll(address,address)": {
        "details": "See {IERC1155-isApprovedForAll}."
      },
      "proxiableUUID()": {
        "details": "Implementation of the ERC1822 {proxiableUUID} function. This returns the storage slot used by the implementation. It is used to validate the implementation's compatibility when performing an upgrade. IMPORTANT: A proxy pointing at a proxiable contract should not be considered proxiable itself, because this risks bricking a proxy that upgrades to it, by delegating to itself until out of gas. Thus it is critical that this function revert if invoked through a proxy. This is guaranteed by the `notDelegated` modifier."
      },
      "renounceRole(bytes32,address)": {
        "details": "Revokes `role` from the calling account. Roles are often managed via {grantRole} and {revokeRole}: this function's purpose is to provide a mechanism for accounts to lose their privileges if they are compromised (such as when a trusted device is misplaced). If the calling account had been revoked `role`, emits a {RoleRevoked} event. Requirements: - the caller must be `account`. May emit a {RoleRevoked} event."
      },
      "revokeRole(bytes32,address)": {
        "details": "Revokes `role` from `account`. If `account` had been granted `role`, emits a {RoleRevoked} event. Requirements: - the caller must have ``role``'s admin role. May emit a {RoleRevoked} event."
      },
      "safeBatchTransferFrom(address,address,uint256[],uint256[],bytes)": {
        "details": "See {IERC1155-safeBatchTransferFrom}."
      },
      "safeTransferFrom(address,address,uint256,uint256,bytes)": {
        "details": "See {IERC1155-safeTransferFrom}."
      },
      "setApprovalForAll(address,bool)": {
        "details": "See {IERC1155-setApprovalForAll}."
      },
      "totalSupply(uint256)": {
        "details": "Total amount of tokens in with a given id."
      },
      "upgradeTo(address)": {
        "details": "Upgrade the implementation of the proxy to `newImplementation`. Calls {_authorizeUpgrade}. Emits an {Upgraded} event."
      },
      "upgradeToAndCall(address,bytes)": {
        "details": "Upgrade the implementation of the proxy to `newImplementation`, and subsequently execute the function call encoded in `data`. Calls {_authorizeUpgrade}. Emits an {Upgraded} event."
      },
      "uri(uint256)": {
        "details": "See {IERC1155MetadataURI-uri}. This implementation returns the same URI for *all* token types. It relies on the token type ID substitution mechanism https://eips.ethereum.org/EIPS/eip-1155#metadata[defined in the EIP]. Clients calling this function must replace the `\\{id\\}` substring with the actual token type ID."
      }
    },
    "version": 1
  },
  "userdoc": {
    "kind": "user",
    "methods": {},
    "version": 1
  }
}